{
  "_format": "hh-sol-artifact-1",
  "contractName": "FiexdDeposit",
  "sourceName": "contracts/FiexdDeposit.sol",
  "abi": [
    {
      "inputs": [
        {
          "internalType": "address",
          "name": "_depositToken",
          "type": "address"
        },
        {
          "internalType": "address",
          "name": "_rewardToken",
          "type": "address"
        },
        {
          "internalType": "uint256",
          "name": "_apr",
          "type": "uint256"
        },
        {
          "internalType": "uint256",
          "name": "_startBlock",
          "type": "uint256"
        },
        {
          "internalType": "uint256",
          "name": "_endBlock",
          "type": "uint256"
        },
        {
          "internalType": "uint256[]",
          "name": "_durations",
          "type": "uint256[]"
        }
      ],
      "stateMutability": "nonpayable",
      "type": "constructor"
    },
    {
      "anonymous": false,
      "inputs": [
        {
          "indexed": true,
          "internalType": "address",
          "name": "user",
          "type": "address"
        },
        {
          "indexed": false,
          "internalType": "uint256",
          "name": "amount",
          "type": "uint256"
        },
        {
          "indexed": false,
          "internalType": "uint256",
          "name": "duration",
          "type": "uint256"
        }
      ],
      "name": "Deposit",
      "type": "event"
    },
    {
      "anonymous": false,
      "inputs": [
        {
          "indexed": true,
          "internalType": "address",
          "name": "user",
          "type": "address"
        },
        {
          "indexed": false,
          "internalType": "uint256",
          "name": "amount",
          "type": "uint256"
        },
        {
          "indexed": false,
          "internalType": "uint256",
          "name": "duration",
          "type": "uint256"
        }
      ],
      "name": "Extension",
      "type": "event"
    },
    {
      "anonymous": false,
      "inputs": [
        {
          "indexed": true,
          "internalType": "address",
          "name": "previousOwner",
          "type": "address"
        },
        {
          "indexed": true,
          "internalType": "address",
          "name": "newOwner",
          "type": "address"
        }
      ],
      "name": "OwnershipTransferred",
      "type": "event"
    },
    {
      "anonymous": false,
      "inputs": [
        {
          "indexed": true,
          "internalType": "address",
          "name": "user",
          "type": "address"
        },
        {
          "indexed": false,
          "internalType": "uint256",
          "name": "amount",
          "type": "uint256"
        },
        {
          "indexed": false,
          "internalType": "uint256",
          "name": "reward",
          "type": "uint256"
        }
      ],
      "name": "Withdraw",
      "type": "event"
    },
    {
      "inputs": [
        {
          "internalType": "uint256[]",
          "name": "durations",
          "type": "uint256[]"
        }
      ],
      "name": "addDurations",
      "outputs": [],
      "stateMutability": "nonpayable",
      "type": "function"
    },
    {
      "inputs": [],
      "name": "apr",
      "outputs": [
        {
          "internalType": "uint256",
          "name": "",
          "type": "uint256"
        }
      ],
      "stateMutability": "view",
      "type": "function"
    },
    {
      "inputs": [
        {
          "internalType": "uint256",
          "name": "amount",
          "type": "uint256"
        },
        {
          "internalType": "uint256",
          "name": "duration",
          "type": "uint256"
        }
      ],
      "name": "deposit",
      "outputs": [],
      "stateMutability": "nonpayable",
      "type": "function"
    },
    {
      "inputs": [],
      "name": "depositToken",
      "outputs": [
        {
          "internalType": "address",
          "name": "",
          "type": "address"
        }
      ],
      "stateMutability": "view",
      "type": "function"
    },
    {
      "inputs": [
        {
          "internalType": "uint256",
          "name": "duration",
          "type": "uint256"
        }
      ],
      "name": "durationContains",
      "outputs": [
        {
          "internalType": "bool",
          "name": "",
          "type": "bool"
        }
      ],
      "stateMutability": "view",
      "type": "function"
    },
    {
      "inputs": [],
      "name": "durationValues",
      "outputs": [
        {
          "internalType": "uint256[]",
          "name": "",
          "type": "uint256[]"
        }
      ],
      "stateMutability": "view",
      "type": "function"
    },
    {
      "inputs": [],
      "name": "endBlock",
      "outputs": [
        {
          "internalType": "uint256",
          "name": "",
          "type": "uint256"
        }
      ],
      "stateMutability": "view",
      "type": "function"
    },
    {
      "inputs": [
        {
          "internalType": "uint256",
          "name": "duration",
          "type": "uint256"
        }
      ],
      "name": "extension",
      "outputs": [],
      "stateMutability": "nonpayable",
      "type": "function"
    },
    {
      "inputs": [],
      "name": "owner",
      "outputs": [
        {
          "internalType": "address",
          "name": "",
          "type": "address"
        }
      ],
      "stateMutability": "view",
      "type": "function"
    },
    {
      "inputs": [],
      "name": "protectionPeriod",
      "outputs": [
        {
          "internalType": "uint256",
          "name": "",
          "type": "uint256"
        }
      ],
      "stateMutability": "view",
      "type": "function"
    },
    {
      "inputs": [
        {
          "internalType": "uint256[]",
          "name": "durations",
          "type": "uint256[]"
        }
      ],
      "name": "removeDurations",
      "outputs": [],
      "stateMutability": "nonpayable",
      "type": "function"
    },
    {
      "inputs": [],
      "name": "renounceOwnership",
      "outputs": [],
      "stateMutability": "nonpayable",
      "type": "function"
    },
    {
      "inputs": [],
      "name": "rewardToken",
      "outputs": [
        {
          "internalType": "address",
          "name": "",
          "type": "address"
        }
      ],
      "stateMutability": "view",
      "type": "function"
    },
    {
      "inputs": [],
      "name": "startBlock",
      "outputs": [
        {
          "internalType": "uint256",
          "name": "",
          "type": "uint256"
        }
      ],
      "stateMutability": "view",
      "type": "function"
    },
    {
      "inputs": [],
      "name": "totalDeposit",
      "outputs": [
        {
          "internalType": "uint256",
          "name": "",
          "type": "uint256"
        }
      ],
      "stateMutability": "view",
      "type": "function"
    },
    {
      "inputs": [],
      "name": "tradeFeeRate",
      "outputs": [
        {
          "internalType": "uint256",
          "name": "",
          "type": "uint256"
        }
      ],
      "stateMutability": "view",
      "type": "function"
    },
    {
      "inputs": [
        {
          "internalType": "address",
          "name": "newOwner",
          "type": "address"
        }
      ],
      "name": "transferOwnership",
      "outputs": [],
      "stateMutability": "nonpayable",
      "type": "function"
    },
    {
      "inputs": [
        {
          "internalType": "uint256",
          "name": "_apr",
          "type": "uint256"
        }
      ],
      "name": "updateApr",
      "outputs": [],
      "stateMutability": "nonpayable",
      "type": "function"
    },
    {
      "inputs": [
        {
          "internalType": "uint256",
          "name": "_startBlock",
          "type": "uint256"
        },
        {
          "internalType": "uint256",
          "name": "_endBlock",
          "type": "uint256"
        }
      ],
      "name": "updateDepositDate",
      "outputs": [],
      "stateMutability": "nonpayable",
      "type": "function"
    },
    {
      "inputs": [
        {
          "internalType": "uint256",
          "name": "_protectionPeriod",
          "type": "uint256"
        }
      ],
      "name": "updateProtectionPeriod",
      "outputs": [],
      "stateMutability": "nonpayable",
      "type": "function"
    },
    {
      "inputs": [
        {
          "internalType": "uint256",
          "name": "_tradeFeeRate",
          "type": "uint256"
        }
      ],
      "name": "updateTradeFeeRate",
      "outputs": [],
      "stateMutability": "nonpayable",
      "type": "function"
    },
    {
      "inputs": [
        {
          "internalType": "uint256",
          "name": "_yitian",
          "type": "uint256"
        }
      ],
      "name": "updateYiTian",
      "outputs": [],
      "stateMutability": "nonpayable",
      "type": "function"
    },
    {
      "inputs": [
        {
          "internalType": "address",
          "name": "user",
          "type": "address"
        }
      ],
      "name": "viewDepositSlip",
      "outputs": [
        {
          "components": [
            {
              "internalType": "address",
              "name": "user",
              "type": "address"
            },
            {
              "internalType": "uint256",
              "name": "balance",
              "type": "uint256"
            },
            {
              "internalType": "uint256",
              "name": "startTime",
              "type": "uint256"
            },
            {
              "internalType": "uint256",
              "name": "duration",
              "type": "uint256"
            },
            {
              "internalType": "uint256",
              "name": "apr",
              "type": "uint256"
            },
            {
              "internalType": "uint256",
              "name": "reward",
              "type": "uint256"
            }
          ],
          "internalType": "struct FiexdDeposit.DepositSlip",
          "name": "",
          "type": "tuple"
        }
      ],
      "stateMutability": "view",
      "type": "function"
    },
    {
      "inputs": [],
      "name": "withdraw",
      "outputs": [],
      "stateMutability": "nonpayable",
      "type": "function"
    },
    {
      "inputs": [],
      "name": "yitian",
      "outputs": [
        {
          "internalType": "uint256",
          "name": "",
          "type": "uint256"
        }
      ],
      "stateMutability": "view",
      "type": "function"
    }
  ],
  "bytecode": "0x6080604052600060065562093a8060075562015180600a553480156200002457600080fd5b5060405162001a4f38038062001a4f833981016040819052620000479162000397565b620000523362000257565b6001600160a01b038616158015906200007357506001600160a01b03851615155b620000ba5760405162461bcd60e51b81526020600482015260126024820152713a37b5b2b7103830b930b6b99032b93937b960711b60448201526064015b60405180910390fd5b600084116200010c5760405162461bcd60e51b815260206004820152601960248201527f696e7465726573745261746520706172616d73206572726f72000000000000006044820152606401620000b1565b4383116200015d5760405162461bcd60e51b815260206004820152601760248201527f7374617274426c6f636b20706172616d73206572726f720000000000000000006044820152606401620000b1565b828211620001ae5760405162461bcd60e51b815260206004820152601560248201527f656e64426c6f636b20706172616d73206572726f7200000000000000000000006044820152606401620000b1565b6000815111620002015760405162461bcd60e51b815260206004820152601660248201527f6475726174696f6e7320706172616d73206572726f72000000000000000000006044820152606401620000b1565b600380546001600160a01b038089166001600160a01b03199283161790925560048054928816929091169190911790556005849055600883905560098290556200024b81620002a7565b505050505050620004e5565b600080546001600160a01b038381166001600160a01b0319831681178455604051919092169283917f8be0079c531659141344cd1fd0a4f28419497f9722a3daafe3b4186f6b6457e09190a35050565b60005b81518110156200030d57620002f7828281518110620002d957634e487b7160e01b600052603260045260246000fd5b602002602001015160016200031160201b62000ed71790919060201c565b50806200030481620004a7565b915050620002aa565b5050565b60006200031f838362000328565b90505b92915050565b6000818152600183016020526040812054620003715750815460018181018455600084815260208082209093018490558454848252828601909352604090209190915562000322565b50600062000322565b80516001600160a01b03811681146200039257600080fd5b919050565b60008060008060008060c08789031215620003b0578182fd5b620003bb876200037a565b95506020620003cc8189016200037a565b604089015160608a015160808b015160a08c0151939950919750955093506001600160401b0380821115620003ff578384fd5b818a0191508a601f83011262000413578384fd5b815181811115620004285762000428620004cf565b8060051b604051601f19603f83011681018181108582111715620004505762000450620004cf565b604052828152858101935084860182860187018f10156200046f578788fd5b8795505b838610156200049357805185526001959095019493860193860162000473565b508096505050505050509295509295509295565b6000600019821415620004c857634e487b7160e01b81526011600452602481fd5b5060010190565b634e487b7160e01b600052604160045260246000fd5b61155a80620004f56000396000f3fe608060405234801561001057600080fd5b50600436106101735760003560e01c806380dc72aa116100de578063c89039c511610097578063eed7e43711610071578063eed7e4371461033e578063f2fde38b14610351578063f6153ccd14610364578063f7c618c11461036d57600080fd5b8063c89039c514610305578063e2bbb15814610318578063e79a5ebd1461032b57600080fd5b806380dc72aa146102315780638552bf90146102945780638c2ba3b1146102a75780638da5cb5b146102ba5780639bcf4d38146102df578063bb14462c146102f257600080fd5b80633ccfd60b116101305780633ccfd60b146101f357806348cd4cb1146101fb578063574c9b481461020457806357ded9c9146102175780636b04b9cf14610220578063715018a61461022957600080fd5b8063083c6323146101785780631f57e9a5146101945780632026ef521461019d5780632209e0de146101b25780632abef4fe146101d5578063321cacb5146101de575b600080fd5b61018160095481565b6040519081526020015b60405180910390f35b610181600a5481565b6101a5610380565b60405161018b91906113d3565b6101c56101c036600461139a565b610391565b604051901515815260200161018b565b61018160075481565b6101f16101ec36600461139a565b6103a4565b005b6101f16103fe565b61018160085481565b6101f16102123660046113b2565b610745565b61018160055481565b61018160065481565b6101f16107c4565b61024461023f366004611293565b6107fa565b60405161018b919081516001600160a01b031681526020808301519082015260408083015190820152606080830151908201526080808301519082015260a0918201519181019190915260c00190565b6101f16102a236600461139a565b6108c0565b6101f16102b536600461139a565b610911565b6000546001600160a01b03165b6040516001600160a01b03909116815260200161018b565b6101f16102ed36600461139a565b610ab1565b6101f161030036600461139a565b610b02565b6003546102c7906001600160a01b031681565b6101f16103263660046113b2565b610b53565b6101f16103393660046112ba565b610d81565b6101f161034c3660046112ba565b610e09565b6101f161035f366004611293565b610e3f565b610181600b5481565b6004546102c7906001600160a01b031681565b606061038c6001610eea565b905090565b600061039e600183610ef7565b92915050565b6000546001600160a01b031633146103d75760405162461bcd60e51b81526004016103ce9061143a565b60405180910390fd5b6006548114156103f95760405162461bcd60e51b81526004016103ce90611417565b600655565b336000908152600c602052604081206002810154600a54600383015492939261042791906114a7565b610431919061146f565b90504281106104745760405162461bcd60e51b815260206004820152600f60248201526e6465706f736974206e6f742064756560881b60448201526064016103ce565b60008260010154116104b55760405162461bcd60e51b815260206004820152600a6024820152696e6f2062616c616e636560b01b60448201526064016103ce565b6104be82610f0f565b6001820154600583015480156104ff57600061271060065486600501546104e591906114a7565b6104ef9190611487565b90506104fb81836114c6565b9150505b60006001850181905560058501819055600b80548492906105219084906114c6565b90915550506004546003546001600160a01b03908116911614156105e55760035484546001600160a01b039182169163a9059cbb9116610561848661146f565b6040516001600160e01b031960e085901b1681526001600160a01b0390921660048301526024820152604401602060405180830381600087803b1580156105a757600080fd5b505af11580156105bb573d6000803e3d6000fd5b505050506040513d601f19601f820116820180604052508101906105df919061137a565b506106f8565b600354845460405163a9059cbb60e01b81526001600160a01b0391821660048201526024810185905291169063a9059cbb90604401602060405180830381600087803b15801561063457600080fd5b505af1158015610648573d6000803e3d6000fd5b505050506040513d601f19601f8201168201806040525081019061066c919061137a565b5060048054855460405163a9059cbb60e01b81526001600160a01b039182169381019390935260248301849052169063a9059cbb90604401602060405180830381600087803b1580156106be57600080fd5b505af11580156106d2573d6000803e3d6000fd5b505050506040513d601f19601f820116820180604052508101906106f6919061137a565b505b835460408051848152602081018490526001600160a01b03909216917ff279e6a1f5e320cca91135676d9cb6e44ca8a08c0b88342bcdb1144f6511b568910160405180910390a250505050565b6000546001600160a01b0316331461076f5760405162461bcd60e51b81526004016103ce9061143a565b438211801561077d57508181115b6107b95760405162461bcd60e51b815260206004820152600d60248201526c3230ba329034b99032b93937b960991b60448201526064016103ce565b600891909155600955565b6000546001600160a01b031633146107ee5760405162461bcd60e51b81526004016103ce9061143a565b6107f86000610f88565b565b61083c6040518060c0016040528060006001600160a01b0316815260200160008152602001600081526020016000815260200160008152602001600081525090565b6001600160a01b038083166000908152600c6020908152604091829020825160c0810184528154909416845260018101549184019190915260028101549183019190915260038101546060830152600481015460808301526005015460a08201526108a681610fd8565b8160a0018181516108b7919061146f565b90525092915050565b6000546001600160a01b031633146108ea5760405162461bcd60e51b81526004016103ce9061143a565b60055481141561090c5760405162461bcd60e51b81526004016103ce90611417565b600555565b61091a81610391565b6109605760405162461bcd60e51b81526020600482015260176024820152763232b0b23634b732903830b930b69034b99032b93937b960491b60448201526064016103ce565b336000908152600c602052604081206002810154600a54600383015492939261098991906114a7565b610993919061146f565b90504281106109d65760405162461bcd60e51b815260206004820152600f60248201526e6465706f736974206e6f742064756560881b60448201526064016103ce565b6007546109e382426114c6565b10610a1b5760405162461bcd60e51b8152602060048201526008602482015267746f6f206c61746560c01b60448201526064016103ce565b610a2482610f0f565b8160050154826001016000828254610a3c919061146f565b90915550506000600583810191909155546004830155600382018390554260028301558154600183015460408051918252602082018690526001600160a01b03909216917fa450ed142407d4883c8a7354a8bd06c2d055101cfb5dbb323cd89624bcca0d5291015b60405180910390a2505050565b6000546001600160a01b03163314610adb5760405162461bcd60e51b81526004016103ce9061143a565b600754811415610afd5760405162461bcd60e51b81526004016103ce90611417565b600755565b6000546001600160a01b03163314610b2c5760405162461bcd60e51b81526004016103ce9061143a565b600a54811415610b4e5760405162461bcd60e51b81526004016103ce90611417565b600a55565b4360085411158015610b6757504360095410155b610ba65760405162461bcd60e51b815260206004820152601060248201526f3232b837b9b4ba103737ba1037b832b760811b60448201526064016103ce565b60008211610be55760405162461bcd60e51b815260206004820152600c60248201526b30b6b7bab73a1032b93937b960a11b60448201526064016103ce565b610bee81610391565b610c345760405162461bcd60e51b81526020600482015260176024820152763232b0b23634b732903830b930b69034b99032b93937b960491b60448201526064016103ce565b336000908152600c60205260409020610c4c81610f0f565b6003546001600160a01b03166323b872dd336040516001600160e01b031960e084901b1681526001600160a01b03909116600482015230602482015260448101869052606401602060405180830381600087803b158015610cac57600080fd5b505af1158015610cc0573d6000803e3d6000fd5b505050506040513d601f19601f82011682018060405250810190610ce4919061137a565b5082816001016000828254610cf9919061146f565b909155505080546001600160a01b03191633178155600554600482015560038101829055426002820155600b8054849190600090610d3890849061146f565b9091555050805460408051858152602081018590526001600160a01b03909216917f90890809c654f11d6e72a28fa60149770a0d11ec6c92319d6ceb2bb0a4ea1a159101610aa4565b6000546001600160a01b03163314610dab5760405162461bcd60e51b81526004016103ce9061143a565b60005b8151811015610e0557610df2828281518110610dda57634e487b7160e01b600052603260045260246000fd5b6020026020010151600161106590919063ffffffff16565b5080610dfd816114dd565b915050610dae565b5050565b6000546001600160a01b03163314610e335760405162461bcd60e51b81526004016103ce9061143a565b610e3c81611071565b50565b6000546001600160a01b03163314610e695760405162461bcd60e51b81526004016103ce9061143a565b6001600160a01b038116610ece5760405162461bcd60e51b815260206004820152602660248201527f4f776e61626c653a206e6577206f776e657220697320746865207a65726f206160448201526564647265737360d01b60648201526084016103ce565b610e3c81610f88565b6000610ee383836110cb565b9392505050565b60606000610ee38361111a565b60008181526001830160205260408120541515610ee3565b600181015415610e3c576040805160c08101825282546001600160a01b03168152600183015460208201526002830154918101919091526003820154606082015260048201546080820152600582015460a0820152610f6d90610fd8565b816005016000828254610f80919061146f565b909155505050565b600080546001600160a01b038381166001600160a01b0319831681178455604051919092169283917f8be0079c531659141344cd1fd0a4f28419497f9722a3daafe3b4186f6b6457e09190a35050565b60208101516000901561106057600061016d6127108460800151856020015161100191906114a7565b61100b9190611487565b6110159190611487565b90506000600a5484604001514261102c91906114c6565b6110369190611487565b905083606001518111611049578061104f565b83606001515b905061105b81836114a7565b925050505b919050565b6000610ee38383611176565b60005b8151811015610e05576110b88282815181106110a057634e487b7160e01b600052603260045260246000fd5b60200260200101516001610ed790919063ffffffff16565b50806110c3816114dd565b915050611074565b60008181526001830160205260408120546111125750815460018181018455600084815260208082209093018490558454848252828601909352604090209190915561039e565b50600061039e565b60608160000180548060200260200160405190810160405280929190818152602001828054801561116a57602002820191906000526020600020905b815481526020019060010190808311611156575b50505050509050919050565b6000818152600183016020526040812054801561128957600061119a6001836114c6565b85549091506000906111ae906001906114c6565b905081811461122f5760008660000182815481106111dc57634e487b7160e01b600052603260045260246000fd5b906000526020600020015490508087600001848154811061120d57634e487b7160e01b600052603260045260246000fd5b6000918252602080832090910192909255918252600188019052604090208390555b855486908061124e57634e487b7160e01b600052603160045260246000fd5b60019003818190600052602060002001600090559055856001016000868152602001908152602001600020600090556001935050505061039e565b600091505061039e565b6000602082840312156112a4578081fd5b81356001600160a01b0381168114610ee3578182fd5b600060208083850312156112cc578182fd5b823567ffffffffffffffff808211156112e3578384fd5b818501915085601f8301126112f6578384fd5b8135818111156113085761130861150e565b8060051b604051601f19603f8301168101818110858211171561132d5761132d61150e565b604052828152858101935084860182860187018a101561134b578788fd5b8795505b8386101561136d57803585526001959095019493860193860161134f565b5098975050505050505050565b60006020828403121561138b578081fd5b81518015158114610ee3578182fd5b6000602082840312156113ab578081fd5b5035919050565b600080604083850312156113c4578081fd5b50508035926020909101359150565b6020808252825182820181905260009190848201906040850190845b8181101561140b578351835292840192918401916001016113ef565b50909695505050505050565b6020808252600990820152686e6f206368616e676560b81b604082015260600190565b6020808252818101527f4f776e61626c653a2063616c6c6572206973206e6f7420746865206f776e6572604082015260600190565b60008219821115611482576114826114f8565b500190565b6000826114a257634e487b7160e01b81526012600452602481fd5b500490565b60008160001904831182151516156114c1576114c16114f8565b500290565b6000828210156114d8576114d86114f8565b500390565b60006000198214156114f1576114f16114f8565b5060010190565b634e487b7160e01b600052601160045260246000fd5b634e487b7160e01b600052604160045260246000fdfea2646970667358221220fa932c3e99b74a0d3e474b0276af4b9fbe95f70e9ce1379a91a2b9263ee68d0864736f6c63430008040033",
  "linkReferences": {},
  "deployedLinkReferences": {}
}