{
  "_format": "hh-sol-artifact-1",
  "contractName": "FiexdDeposit",
  "sourceName": "contracts/FiexdDeposit.sol",
  "abi": [
    {
      "inputs": [
        {
          "internalType": "address",
          "name": "_depositToken",
          "type": "address"
        },
        {
          "internalType": "uint256",
          "name": "_apr",
          "type": "uint256"
        },
        {
          "internalType": "uint256",
          "name": "_startBlock",
          "type": "uint256"
        },
        {
          "internalType": "uint256",
          "name": "_endBlock",
          "type": "uint256"
        },
        {
          "internalType": "uint256[]",
          "name": "_durations",
          "type": "uint256[]"
        }
      ],
      "stateMutability": "nonpayable",
      "type": "constructor"
    },
    {
      "anonymous": false,
      "inputs": [
        {
          "indexed": true,
          "internalType": "address",
          "name": "user",
          "type": "address"
        },
        {
          "indexed": false,
          "internalType": "uint256",
          "name": "amount",
          "type": "uint256"
        }
      ],
      "name": "Claim",
      "type": "event"
    },
    {
      "anonymous": false,
      "inputs": [
        {
          "indexed": true,
          "internalType": "address",
          "name": "user",
          "type": "address"
        },
        {
          "indexed": false,
          "internalType": "uint256",
          "name": "amount",
          "type": "uint256"
        },
        {
          "indexed": false,
          "internalType": "uint256",
          "name": "duration",
          "type": "uint256"
        }
      ],
      "name": "Deposit",
      "type": "event"
    },
    {
      "anonymous": false,
      "inputs": [
        {
          "indexed": true,
          "internalType": "address",
          "name": "user",
          "type": "address"
        },
        {
          "indexed": false,
          "internalType": "uint256",
          "name": "amount",
          "type": "uint256"
        },
        {
          "indexed": false,
          "internalType": "uint256",
          "name": "duration",
          "type": "uint256"
        }
      ],
      "name": "Extension",
      "type": "event"
    },
    {
      "anonymous": false,
      "inputs": [
        {
          "indexed": true,
          "internalType": "address",
          "name": "previousOwner",
          "type": "address"
        },
        {
          "indexed": true,
          "internalType": "address",
          "name": "newOwner",
          "type": "address"
        }
      ],
      "name": "OwnershipTransferred",
      "type": "event"
    },
    {
      "anonymous": false,
      "inputs": [
        {
          "indexed": true,
          "internalType": "address",
          "name": "user",
          "type": "address"
        },
        {
          "indexed": false,
          "internalType": "uint256",
          "name": "amount",
          "type": "uint256"
        },
        {
          "indexed": false,
          "internalType": "uint256",
          "name": "reward",
          "type": "uint256"
        }
      ],
      "name": "Withdraw",
      "type": "event"
    },
    {
      "inputs": [
        {
          "internalType": "uint256[]",
          "name": "durations",
          "type": "uint256[]"
        }
      ],
      "name": "addDurations",
      "outputs": [],
      "stateMutability": "nonpayable",
      "type": "function"
    },
    {
      "inputs": [],
      "name": "apr",
      "outputs": [
        {
          "internalType": "uint256",
          "name": "",
          "type": "uint256"
        }
      ],
      "stateMutability": "view",
      "type": "function"
    },
    {
      "inputs": [],
      "name": "claim",
      "outputs": [],
      "stateMutability": "nonpayable",
      "type": "function"
    },
    {
      "inputs": [
        {
          "internalType": "uint256",
          "name": "amount",
          "type": "uint256"
        },
        {
          "internalType": "uint256",
          "name": "duration",
          "type": "uint256"
        }
      ],
      "name": "deposit",
      "outputs": [],
      "stateMutability": "nonpayable",
      "type": "function"
    },
    {
      "inputs": [],
      "name": "depositToken",
      "outputs": [
        {
          "internalType": "address",
          "name": "",
          "type": "address"
        }
      ],
      "stateMutability": "view",
      "type": "function"
    },
    {
      "inputs": [
        {
          "internalType": "uint256",
          "name": "duration",
          "type": "uint256"
        }
      ],
      "name": "durationContains",
      "outputs": [
        {
          "internalType": "bool",
          "name": "",
          "type": "bool"
        }
      ],
      "stateMutability": "view",
      "type": "function"
    },
    {
      "inputs": [],
      "name": "durationValues",
      "outputs": [
        {
          "internalType": "uint256[]",
          "name": "",
          "type": "uint256[]"
        }
      ],
      "stateMutability": "view",
      "type": "function"
    },
    {
      "inputs": [],
      "name": "endBlock",
      "outputs": [
        {
          "internalType": "uint256",
          "name": "",
          "type": "uint256"
        }
      ],
      "stateMutability": "view",
      "type": "function"
    },
    {
      "inputs": [
        {
          "internalType": "uint256",
          "name": "duration",
          "type": "uint256"
        }
      ],
      "name": "extension",
      "outputs": [],
      "stateMutability": "nonpayable",
      "type": "function"
    },
    {
      "inputs": [],
      "name": "owner",
      "outputs": [
        {
          "internalType": "address",
          "name": "",
          "type": "address"
        }
      ],
      "stateMutability": "view",
      "type": "function"
    },
    {
      "inputs": [],
      "name": "protectionPeriod",
      "outputs": [
        {
          "internalType": "uint256",
          "name": "",
          "type": "uint256"
        }
      ],
      "stateMutability": "view",
      "type": "function"
    },
    {
      "inputs": [
        {
          "internalType": "uint256[]",
          "name": "durations",
          "type": "uint256[]"
        }
      ],
      "name": "removeDurations",
      "outputs": [],
      "stateMutability": "nonpayable",
      "type": "function"
    },
    {
      "inputs": [],
      "name": "renounceOwnership",
      "outputs": [],
      "stateMutability": "nonpayable",
      "type": "function"
    },
    {
      "inputs": [],
      "name": "startBlock",
      "outputs": [
        {
          "internalType": "uint256",
          "name": "",
          "type": "uint256"
        }
      ],
      "stateMutability": "view",
      "type": "function"
    },
    {
      "inputs": [],
      "name": "totalDeposit",
      "outputs": [
        {
          "internalType": "uint256",
          "name": "",
          "type": "uint256"
        }
      ],
      "stateMutability": "view",
      "type": "function"
    },
    {
      "inputs": [],
      "name": "tradeFeeRate",
      "outputs": [
        {
          "internalType": "uint256",
          "name": "",
          "type": "uint256"
        }
      ],
      "stateMutability": "view",
      "type": "function"
    },
    {
      "inputs": [
        {
          "internalType": "address",
          "name": "newOwner",
          "type": "address"
        }
      ],
      "name": "transferOwnership",
      "outputs": [],
      "stateMutability": "nonpayable",
      "type": "function"
    },
    {
      "inputs": [
        {
          "internalType": "uint256",
          "name": "_apr",
          "type": "uint256"
        }
      ],
      "name": "updateApr",
      "outputs": [],
      "stateMutability": "nonpayable",
      "type": "function"
    },
    {
      "inputs": [
        {
          "internalType": "uint256",
          "name": "_startBlock",
          "type": "uint256"
        },
        {
          "internalType": "uint256",
          "name": "_endBlock",
          "type": "uint256"
        }
      ],
      "name": "updateDepositDate",
      "outputs": [],
      "stateMutability": "nonpayable",
      "type": "function"
    },
    {
      "inputs": [
        {
          "internalType": "uint256",
          "name": "_protectionPeriod",
          "type": "uint256"
        }
      ],
      "name": "updateProtectionPeriod",
      "outputs": [],
      "stateMutability": "nonpayable",
      "type": "function"
    },
    {
      "inputs": [
        {
          "internalType": "uint256",
          "name": "_tradeFeeRate",
          "type": "uint256"
        }
      ],
      "name": "updateTradeFeeRate",
      "outputs": [],
      "stateMutability": "nonpayable",
      "type": "function"
    },
    {
      "inputs": [
        {
          "internalType": "uint256",
          "name": "_yitian",
          "type": "uint256"
        }
      ],
      "name": "updateYiTian",
      "outputs": [],
      "stateMutability": "nonpayable",
      "type": "function"
    },
    {
      "inputs": [
        {
          "internalType": "address",
          "name": "user",
          "type": "address"
        }
      ],
      "name": "viewDepositSlip",
      "outputs": [
        {
          "components": [
            {
              "internalType": "address",
              "name": "user",
              "type": "address"
            },
            {
              "internalType": "uint256",
              "name": "balance",
              "type": "uint256"
            },
            {
              "internalType": "uint256",
              "name": "startTime",
              "type": "uint256"
            },
            {
              "internalType": "uint256",
              "name": "duration",
              "type": "uint256"
            },
            {
              "internalType": "uint256",
              "name": "apr",
              "type": "uint256"
            },
            {
              "internalType": "uint256",
              "name": "reward",
              "type": "uint256"
            }
          ],
          "internalType": "struct FiexdDeposit.DepositSlip",
          "name": "",
          "type": "tuple"
        }
      ],
      "stateMutability": "view",
      "type": "function"
    },
    {
      "inputs": [
        {
          "internalType": "address",
          "name": "user",
          "type": "address"
        }
      ],
      "name": "viewLockReward",
      "outputs": [
        {
          "components": [
            {
              "internalType": "uint256",
              "name": "lockAmount",
              "type": "uint256"
            },
            {
              "internalType": "uint256",
              "name": "unlockAmount",
              "type": "uint256"
            },
            {
              "internalType": "uint256",
              "name": "claimed",
              "type": "uint256"
            }
          ],
          "internalType": "struct FiexdDeposit.LockReward",
          "name": "lockReward",
          "type": "tuple"
        }
      ],
      "stateMutability": "view",
      "type": "function"
    },
    {
      "inputs": [],
      "name": "withdraw",
      "outputs": [],
      "stateMutability": "nonpayable",
      "type": "function"
    },
    {
      "inputs": [],
      "name": "yitian",
      "outputs": [
        {
          "internalType": "uint256",
          "name": "",
          "type": "uint256"
        }
      ],
      "stateMutability": "view",
      "type": "function"
    }
  ],
  "bytecode": "0x6080604052600060055562093a80600655620151806009553480156200002457600080fd5b50604051620021393803806200213983398101604081905262000047916200034d565b62000052336200022a565b6001600160a01b038516620000a35760405162461bcd60e51b81526020600482015260126024820152713a37b5b2b7103830b930b6b99032b93937b960711b60448201526064015b60405180910390fd5b60008411620000f55760405162461bcd60e51b815260206004820152601960248201527f696e7465726573745261746520706172616d73206572726f720000000000000060448201526064016200009a565b438311620001465760405162461bcd60e51b815260206004820152601760248201527f7374617274426c6f636b20706172616d73206572726f7200000000000000000060448201526064016200009a565b828211620001975760405162461bcd60e51b815260206004820152601560248201527f656e64426c6f636b20706172616d73206572726f72000000000000000000000060448201526064016200009a565b6000815111620001ea5760405162461bcd60e51b815260206004820152601660248201527f6475726174696f6e7320706172616d73206572726f720000000000000000000060448201526064016200009a565b600380546001600160a01b0319166001600160a01b0387161790556004849055600783905560088290556200021f816200027a565b505050505062000497565b600080546001600160a01b038381166001600160a01b0319831681178455604051919092169283917f8be0079c531659141344cd1fd0a4f28419497f9722a3daafe3b4186f6b6457e09190a35050565b60005b8151811015620002e057620002ca828281518110620002ac57634e487b7160e01b600052603260045260246000fd5b60200260200101516001620002e460201b6200144b1790919060201c565b5080620002d78162000459565b9150506200027d565b5050565b6000620002f28383620002fb565b90505b92915050565b60008181526001830160205260408120546200034457508154600181810184556000848152602080822090930184905584548482528286019093526040902091909155620002f5565b506000620002f5565b600080600080600060a0868803121562000365578081fd5b85516001600160a01b03811681146200037c578182fd5b602087810151604089015160608a015160808b015194995091975095509350906001600160401b0380821115620003b1578384fd5b818901915089601f830112620003c5578384fd5b815181811115620003da57620003da62000481565b8060051b604051601f19603f8301168101818110858211171562000402576200040262000481565b604052828152858101935084860182860187018e101562000421578788fd5b8795505b838610156200044557805185526001959095019493860193860162000425565b508096505050505050509295509295909350565b60006000198214156200047a57634e487b7160e01b81526011600452602481fd5b5060010190565b634e487b7160e01b600052604160045260246000fd5b611c9280620004a76000396000f3fe608060405234801561001057600080fd5b506004361061018e5760003560e01c8063715018a6116100de578063bb14462c11610097578063e79a5ebd11610071578063e79a5ebd14610383578063eed7e43714610396578063f2fde38b146103a9578063f6153ccd146103bc57600080fd5b8063bb14462c1461034a578063c89039c51461035d578063e2bbb1581461037057600080fd5b8063715018a61461028157806380dc72aa146102895780638552bf90146102ec5780638c2ba3b1146102ff5780638da5cb5b146103125780639bcf4d381461033757600080fd5b80633ccfd60b1161014b578063574c9b4811610125578063574c9b481461022757806357ded9c91461023a5780635e639b1c146102435780636b04b9cf1461027857600080fd5b80633ccfd60b1461020e57806348cd4cb1146102165780634e71d92d1461021f57600080fd5b8063083c6323146101935780631f57e9a5146101af5780632026ef52146101b85780632209e0de146101cd5780632abef4fe146101f0578063321cacb5146101f9575b600080fd5b61019c60085481565b6040519081526020015b60405180910390f35b61019c60095481565b6101c06103c5565b6040516101a69190611b0b565b6101e06101db366004611aba565b6103d6565b60405190151581526020016101a6565b61019c60065481565b61020c610207366004611aba565b6103e9565b005b61020c610443565b61019c60075481565b61020c610618565b61020c610235366004611aea565b61084c565b61019c60045481565b6102566102513660046119b3565b6108cb565b60408051825181526020808401519082015291810151908201526060016101a6565b61019c60055481565b61020c610c32565b61029c6102973660046119b3565b610c68565b6040516101a6919081516001600160a01b031681526020808301519082015260408083015190820152606080830151908201526080808301519082015260a0918201519181019190915260c00190565b61020c6102fa366004611aba565b610d2e565b61020c61030d366004611aba565b610d7f565b6000546001600160a01b03165b6040516001600160a01b0390911681526020016101a6565b61020c610345366004611aba565b610f12565b61020c610358366004611aba565b610f63565b60035461031f906001600160a01b031681565b61020c61037e366004611aea565b610fb4565b61020c6103913660046119da565b6112f5565b61020c6103a43660046119da565b61137d565b61020c6103b73660046119b3565b6113b3565b61019c600a5481565b60606103d1600161145e565b905090565b60006103e360018361146b565b92915050565b6000546001600160a01b0316331461041c5760405162461bcd60e51b815260040161041390611b72565b60405180910390fd5b60055481141561043e5760405162461bcd60e51b815260040161041390611b4f565b600555565b336000908152600b602052604081206002810154600954600383015492939261046c9190611bdf565b6104769190611ba7565b90504281106104b95760405162461bcd60e51b815260206004820152600f60248201526e6465706f736974206e6f742064756560881b6044820152606401610413565b60008260010154116104fa5760405162461bcd60e51b815260206004820152600a6024820152696e6f2062616c616e636560b01b6044820152606401610413565b61050382611483565b60018201546005830154600384015461051e908290856114fc565b600354845460405163a9059cbb60e01b81526001600160a01b0391821660048201526024810185905291169063a9059cbb90604401602060405180830381600087803b15801561056d57600080fd5b505af1158015610581573d6000803e3d6000fd5b505050506040513d601f19601f820116820180604052508101906105a59190611a9a565b5081600a60008282546105b89190611bfe565b90915550506000600185018190556005850155835460408051848152602081018490526001600160a01b03909216917ff279e6a1f5e320cca91135676d9cb6e44ca8a08c0b88342bcdb1144f6511b568910160405180910390a250505050565b336000908152600c6020526040812090805b825481101561073957600061066b84838154811061065857634e487b7160e01b600052603260045260246000fd5b9060005260206000209060040201611607565b90508084838154811061068e57634e487b7160e01b600052603260045260246000fd5b9060005260206000209060040201600301541015610726578382815481106106c657634e487b7160e01b600052603260045260246000fd5b906000526020600020906004020160030154816106e39190611bfe565b6106ed9084611ba7565b92508084838154811061071057634e487b7160e01b600052603260045260246000fd5b9060005260206000209060040201600301819055505b508061073181611c15565b91505061062a565b50600081116107805760405162461bcd60e51b81526020600482015260136024820152726e6f207265776172647320746f20636c61696d60681b6044820152606401610413565b6003546001600160a01b031663a9059cbb336040516001600160e01b031960e084901b1681526001600160a01b03909116600482015260248101849052604401602060405180830381600087803b1580156107da57600080fd5b505af11580156107ee573d6000803e3d6000fd5b505050506040513d601f19601f820116820180604052508101906108129190611a9a565b5060405181815233907f47cee97cb7acd717b3c0aa1435d004cd5b3c8c57d70dbceb4e4458bbd60e39d49060200160405180910390a25050565b6000546001600160a01b031633146108765760405162461bcd60e51b815260040161041390611b72565b438211801561088457508181115b6108c05760405162461bcd60e51b815260206004820152600d60248201526c3230ba329034b99032b93937b960991b6044820152606401610413565b600791909155600855565b6108ef60405180606001604052806000815260200160008152602001600081525090565b6001600160a01b0382166000908152600c6020908152604080832080548251818502810185019093528083529192909190849084015b8282101561097f578382906000526020600020906004020160405180608001604052908160008201548152602001600182015481526020016002820154815260200160038201548152505081526020019060010190610925565b5050505090506000806000805b8451811015610c0f578481815181106109b557634e487b7160e01b600052603260045260246000fd5b602002602001015160600151846109cc9190611ba7565b93508481815181106109ee57634e487b7160e01b600052603260045260246000fd5b602002602001015160600151858281518110610a1a57634e487b7160e01b600052603260045260246000fd5b6020026020010151604001511115610bfd576000858281518110610a4e57634e487b7160e01b600052603260045260246000fd5b60200260200101516000015142610a659190611bfe565b9050600060095482610a779190611bbf565b90506000878481518110610a9b57634e487b7160e01b600052603260045260246000fd5b60200260200101516020015182898681518110610ac857634e487b7160e01b600052603260045260246000fd5b602002602001015160400151610ade9190611bdf565b610ae9906064611bdf565b610af39190611bbf565b9050878481518110610b1557634e487b7160e01b600052603260045260246000fd5b602002602001015160400151606482610b2e9190611bbf565b1015610b4457610b3f606482611bbf565b610b71565b878481518110610b6457634e487b7160e01b600052603260045260246000fd5b6020026020010151604001515b905080888581518110610b9457634e487b7160e01b600052603260045260246000fd5b602002602001015160400151610baa9190611bfe565b610bb49087611ba7565b9550878481518110610bd657634e487b7160e01b600052603260045260246000fd5b60200260200101516060015181610bed9190611bfe565b610bf79086611ba7565b94505050505b80610c0781611c15565b91505061098c565b506040805160608101825292835260208301919091528101919091529392505050565b6000546001600160a01b03163314610c5c5760405162461bcd60e51b815260040161041390611b72565b610c6660006116a8565b565b610caa6040518060c0016040528060006001600160a01b0316815260200160008152602001600081526020016000815260200160008152602001600081525090565b6001600160a01b038083166000908152600b6020908152604091829020825160c0810184528154909416845260018101549184019190915260028101549183019190915260038101546060830152600481015460808301526005015460a0820152610d14816116f8565b8160a001818151610d259190611ba7565b90525092915050565b6000546001600160a01b03163314610d585760405162461bcd60e51b815260040161041390611b72565b600454811415610d7a5760405162461bcd60e51b815260040161041390611b4f565b600455565b610d88816103d6565b610dce5760405162461bcd60e51b81526020600482015260176024820152763232b0b23634b732903830b930b69034b99032b93937b960491b6044820152606401610413565b336000908152600b6020526040812060028101546009546003830154929392610df79190611bdf565b610e019190611ba7565b9050428110610e445760405162461bcd60e51b815260206004820152600f60248201526e6465706f736974206e6f742064756560881b6044820152606401610413565b600654610e518242611bfe565b10610e895760405162461bcd60e51b8152602060048201526008602482015267746f6f206c61746560c01b6044820152606401610413565b610e9282611483565b610ea582600501548360030154836114fc565b600060058301556004805490830155600382018390554260028301558154600183015460408051918252602082018690526001600160a01b03909216917fa450ed142407d4883c8a7354a8bd06c2d055101cfb5dbb323cd89624bcca0d52910160405180910390a2505050565b6000546001600160a01b03163314610f3c5760405162461bcd60e51b815260040161041390611b72565b600654811415610f5e5760405162461bcd60e51b815260040161041390611b4f565b600655565b6000546001600160a01b03163314610f8d5760405162461bcd60e51b815260040161041390611b72565b600954811415610faf5760405162461bcd60e51b815260040161041390611b4f565b600955565b4360075411158015610fc857504360085410155b6110075760405162461bcd60e51b815260206004820152601060248201526f3232b837b9b4ba103737ba1037b832b760811b6044820152606401610413565b600082116110465760405162461bcd60e51b815260206004820152600c60248201526b30b6b7bab73a1032b93937b960a11b6044820152606401610413565b61104f816103d6565b6110955760405162461bcd60e51b81526020600482015260176024820152763232b0b23634b732903830b930b69034b99032b93937b960491b6044820152606401610413565b336000908152600b602052604090206110ad81611483565b6003546040516370a0823160e01b81523060048201526000916001600160a01b0316906370a082319060240160206040518083038186803b1580156110f157600080fd5b505afa158015611105573d6000803e3d6000fd5b505050506040513d601f19601f820116820180604052508101906111299190611ad2565b6003549091506001600160a01b03166323b872dd336040516001600160e01b031960e084901b1681526001600160a01b03909116600482015230602482015260448101879052606401602060405180830381600087803b15801561118c57600080fd5b505af11580156111a0573d6000803e3d6000fd5b505050506040513d601f19601f820116820180604052508101906111c49190611a9a565b506003546040516370a0823160e01b81523060048201526000916001600160a01b0316906370a082319060240160206040518083038186803b15801561120957600080fd5b505afa15801561121d573d6000803e3d6000fd5b505050506040513d601f19601f820116820180604052508101906112419190611ad2565b905061124d8282611bfe565b9450848360010160008282546112639190611ba7565b909155505082546001600160a01b03191633178355600480549084015560038301849055426002840155600a80548691906000906112a2908490611ba7565b9091555050825460408051878152602081018790526001600160a01b03909216917f90890809c654f11d6e72a28fa60149770a0d11ec6c92319d6ceb2bb0a4ea1a15910160405180910390a25050505050565b6000546001600160a01b0316331461131f5760405162461bcd60e51b815260040161041390611b72565b60005b81518110156113795761136682828151811061134e57634e487b7160e01b600052603260045260246000fd5b6020026020010151600161178590919063ffffffff16565b508061137181611c15565b915050611322565b5050565b6000546001600160a01b031633146113a75760405162461bcd60e51b815260040161041390611b72565b6113b081611791565b50565b6000546001600160a01b031633146113dd5760405162461bcd60e51b815260040161041390611b72565b6001600160a01b0381166114425760405162461bcd60e51b815260206004820152602660248201527f4f776e61626c653a206e6577206f776e657220697320746865207a65726f206160448201526564647265737360d01b6064820152608401610413565b6113b0816116a8565b600061145783836117eb565b9392505050565b606060006114578361183a565b60008181526001830160205260408120541515611457565b6001810154156113b0576040805160c08101825282546001600160a01b03168152600183015460208201526002830154918101919091526003820154606082015260048201546080820152600582015460a08201526114e1906116f8565b8160050160008282546114f49190611ba7565b909155505050565b6127106005548461150d9190611bdf565b6115179190611bbf565b6115219084611bfe565b6003546040516340c10f1960e01b8152306004820152602481018390529194506001600160a01b0316906340c10f1990604401600060405180830381600087803b15801561156e57600080fd5b505af1158015611582573d6000803e3d6000fd5b505050506000600c60006115933390565b6001600160a01b0316815260208082019290925260409081016000908120825160808101845295865285840196875291850196875260608501818152825460018181018555938352939091209451600490930290940191825593519381019390935550915160028201559051600390910155565b60008160030154826002015411156116a05781546000906116289042611bfe565b905060006009548261163a9190611bbf565b9050600084600101548286600201546116539190611bdf565b61165e906064611bdf565b6116689190611bbf565b600286015490915061167b606483611bbf565b10156116915761168c606482611bbf565b611697565b84600201545b95945050505050565b506002015490565b600080546001600160a01b038381166001600160a01b0319831681178455604051919092169283917f8be0079c531659141344cd1fd0a4f28419497f9722a3daafe3b4186f6b6457e09190a35050565b60208101516000901561178057600061016d612710846080015185602001516117219190611bdf565b61172b9190611bbf565b6117359190611bbf565b9050600060095484604001514261174c9190611bfe565b6117569190611bbf565b905083606001518111611769578061176f565b83606001515b905061177b8183611bdf565b925050505b919050565b60006114578383611896565b60005b8151811015611379576117d88282815181106117c057634e487b7160e01b600052603260045260246000fd5b6020026020010151600161144b90919063ffffffff16565b50806117e381611c15565b915050611794565b6000818152600183016020526040812054611832575081546001818101845560008481526020808220909301849055845484825282860190935260409020919091556103e3565b5060006103e3565b60608160000180548060200260200160405190810160405280929190818152602001828054801561188a57602002820191906000526020600020905b815481526020019060010190808311611876575b50505050509050919050565b600081815260018301602052604081205480156119a95760006118ba600183611bfe565b85549091506000906118ce90600190611bfe565b905081811461194f5760008660000182815481106118fc57634e487b7160e01b600052603260045260246000fd5b906000526020600020015490508087600001848154811061192d57634e487b7160e01b600052603260045260246000fd5b6000918252602080832090910192909255918252600188019052604090208390555b855486908061196e57634e487b7160e01b600052603160045260246000fd5b6001900381819060005260206000200160009055905585600101600086815260200190815260200160002060009055600193505050506103e3565b60009150506103e3565b6000602082840312156119c4578081fd5b81356001600160a01b0381168114611457578182fd5b600060208083850312156119ec578182fd5b823567ffffffffffffffff80821115611a03578384fd5b818501915085601f830112611a16578384fd5b813581811115611a2857611a28611c46565b8060051b604051601f19603f83011681018181108582111715611a4d57611a4d611c46565b604052828152858101935084860182860187018a1015611a6b578788fd5b8795505b83861015611a8d578035855260019590950194938601938601611a6f565b5098975050505050505050565b600060208284031215611aab578081fd5b81518015158114611457578182fd5b600060208284031215611acb578081fd5b5035919050565b600060208284031215611ae3578081fd5b5051919050565b60008060408385031215611afc578081fd5b50508035926020909101359150565b6020808252825182820181905260009190848201906040850190845b81811015611b4357835183529284019291840191600101611b27565b50909695505050505050565b6020808252600990820152686e6f206368616e676560b81b604082015260600190565b6020808252818101527f4f776e61626c653a2063616c6c6572206973206e6f7420746865206f776e6572604082015260600190565b60008219821115611bba57611bba611c30565b500190565b600082611bda57634e487b7160e01b81526012600452602481fd5b500490565b6000816000190483118215151615611bf957611bf9611c30565b500290565b600082821015611c1057611c10611c30565b500390565b6000600019821415611c2957611c29611c30565b5060010190565b634e487b7160e01b600052601160045260246000fd5b634e487b7160e01b600052604160045260246000fdfea2646970667358221220886e075547d9a044f24579ab33b1771493b13b4aa3189dbd1132bf22101d46da64736f6c63430008040033",
  "linkReferences": {},
  "deployedLinkReferences": {}
}