{
  "_format": "hh-sol-artifact-1",
  "contractName": "FiexdDeposit",
  "sourceName": "contracts/FiexdDeposit.sol",
  "abi": [
    {
      "inputs": [
        {
          "internalType": "address",
          "name": "_depositToken",
          "type": "address"
        },
        {
          "internalType": "uint256",
          "name": "_apr",
          "type": "uint256"
        },
        {
          "internalType": "uint256",
          "name": "_startBlock",
          "type": "uint256"
        },
        {
          "internalType": "uint256",
          "name": "_endBlock",
          "type": "uint256"
        },
        {
          "internalType": "uint256[]",
          "name": "_durations",
          "type": "uint256[]"
        }
      ],
      "stateMutability": "nonpayable",
      "type": "constructor"
    },
    {
      "anonymous": false,
      "inputs": [
        {
          "indexed": true,
          "internalType": "address",
          "name": "user",
          "type": "address"
        },
        {
          "indexed": false,
          "internalType": "uint256",
          "name": "amount",
          "type": "uint256"
        }
      ],
      "name": "Claim",
      "type": "event"
    },
    {
      "anonymous": false,
      "inputs": [
        {
          "indexed": true,
          "internalType": "address",
          "name": "user",
          "type": "address"
        },
        {
          "indexed": false,
          "internalType": "uint256",
          "name": "amount",
          "type": "uint256"
        },
        {
          "indexed": false,
          "internalType": "uint256",
          "name": "duration",
          "type": "uint256"
        }
      ],
      "name": "Deposit",
      "type": "event"
    },
    {
      "anonymous": false,
      "inputs": [
        {
          "indexed": true,
          "internalType": "address",
          "name": "user",
          "type": "address"
        },
        {
          "indexed": false,
          "internalType": "uint256",
          "name": "amount",
          "type": "uint256"
        },
        {
          "indexed": false,
          "internalType": "uint256",
          "name": "duration",
          "type": "uint256"
        }
      ],
      "name": "Extension",
      "type": "event"
    },
    {
      "anonymous": false,
      "inputs": [
        {
          "indexed": true,
          "internalType": "address",
          "name": "previousOwner",
          "type": "address"
        },
        {
          "indexed": true,
          "internalType": "address",
          "name": "newOwner",
          "type": "address"
        }
      ],
      "name": "OwnershipTransferred",
      "type": "event"
    },
    {
      "anonymous": false,
      "inputs": [
        {
          "indexed": true,
          "internalType": "address",
          "name": "user",
          "type": "address"
        },
        {
          "indexed": false,
          "internalType": "uint256",
          "name": "amount",
          "type": "uint256"
        },
        {
          "indexed": false,
          "internalType": "uint256",
          "name": "reward",
          "type": "uint256"
        }
      ],
      "name": "Withdraw",
      "type": "event"
    },
    {
      "inputs": [
        {
          "internalType": "uint256[]",
          "name": "durations",
          "type": "uint256[]"
        }
      ],
      "name": "addDurations",
      "outputs": [],
      "stateMutability": "nonpayable",
      "type": "function"
    },
    {
      "inputs": [],
      "name": "apr",
      "outputs": [
        {
          "internalType": "uint256",
          "name": "",
          "type": "uint256"
        }
      ],
      "stateMutability": "view",
      "type": "function"
    },
    {
      "inputs": [],
      "name": "claim",
      "outputs": [],
      "stateMutability": "nonpayable",
      "type": "function"
    },
    {
      "inputs": [
        {
          "internalType": "uint256",
          "name": "amount",
          "type": "uint256"
        },
        {
          "internalType": "uint256",
          "name": "duration",
          "type": "uint256"
        }
      ],
      "name": "deposit",
      "outputs": [],
      "stateMutability": "nonpayable",
      "type": "function"
    },
    {
      "inputs": [],
      "name": "depositToken",
      "outputs": [
        {
          "internalType": "address",
          "name": "",
          "type": "address"
        }
      ],
      "stateMutability": "view",
      "type": "function"
    },
    {
      "inputs": [
        {
          "internalType": "uint256",
          "name": "duration",
          "type": "uint256"
        }
      ],
      "name": "durationContains",
      "outputs": [
        {
          "internalType": "bool",
          "name": "",
          "type": "bool"
        }
      ],
      "stateMutability": "view",
      "type": "function"
    },
    {
      "inputs": [],
      "name": "durationValues",
      "outputs": [
        {
          "internalType": "uint256[]",
          "name": "",
          "type": "uint256[]"
        }
      ],
      "stateMutability": "view",
      "type": "function"
    },
    {
      "inputs": [],
      "name": "endBlock",
      "outputs": [
        {
          "internalType": "uint256",
          "name": "",
          "type": "uint256"
        }
      ],
      "stateMutability": "view",
      "type": "function"
    },
    {
      "inputs": [
        {
          "internalType": "uint256",
          "name": "duration",
          "type": "uint256"
        }
      ],
      "name": "extension",
      "outputs": [],
      "stateMutability": "nonpayable",
      "type": "function"
    },
    {
      "inputs": [],
      "name": "extensionCountLimit",
      "outputs": [
        {
          "internalType": "uint8",
          "name": "",
          "type": "uint8"
        }
      ],
      "stateMutability": "view",
      "type": "function"
    },
    {
      "inputs": [],
      "name": "owner",
      "outputs": [
        {
          "internalType": "address",
          "name": "",
          "type": "address"
        }
      ],
      "stateMutability": "view",
      "type": "function"
    },
    {
      "inputs": [],
      "name": "protectionPeriod",
      "outputs": [
        {
          "internalType": "uint256",
          "name": "",
          "type": "uint256"
        }
      ],
      "stateMutability": "view",
      "type": "function"
    },
    {
      "inputs": [
        {
          "internalType": "uint256[]",
          "name": "durations",
          "type": "uint256[]"
        }
      ],
      "name": "removeDurations",
      "outputs": [],
      "stateMutability": "nonpayable",
      "type": "function"
    },
    {
      "inputs": [],
      "name": "renounceOwnership",
      "outputs": [],
      "stateMutability": "nonpayable",
      "type": "function"
    },
    {
      "inputs": [],
      "name": "startBlock",
      "outputs": [
        {
          "internalType": "uint256",
          "name": "",
          "type": "uint256"
        }
      ],
      "stateMutability": "view",
      "type": "function"
    },
    {
      "inputs": [],
      "name": "totalDeposit",
      "outputs": [
        {
          "internalType": "uint256",
          "name": "",
          "type": "uint256"
        }
      ],
      "stateMutability": "view",
      "type": "function"
    },
    {
      "inputs": [],
      "name": "tradeFeeRate",
      "outputs": [
        {
          "internalType": "uint256",
          "name": "",
          "type": "uint256"
        }
      ],
      "stateMutability": "view",
      "type": "function"
    },
    {
      "inputs": [
        {
          "internalType": "address",
          "name": "newOwner",
          "type": "address"
        }
      ],
      "name": "transferOwnership",
      "outputs": [],
      "stateMutability": "nonpayable",
      "type": "function"
    },
    {
      "inputs": [
        {
          "internalType": "uint256",
          "name": "_apr",
          "type": "uint256"
        }
      ],
      "name": "updateApr",
      "outputs": [],
      "stateMutability": "nonpayable",
      "type": "function"
    },
    {
      "inputs": [
        {
          "internalType": "uint256",
          "name": "_startBlock",
          "type": "uint256"
        },
        {
          "internalType": "uint256",
          "name": "_endBlock",
          "type": "uint256"
        }
      ],
      "name": "updateDepositDate",
      "outputs": [],
      "stateMutability": "nonpayable",
      "type": "function"
    },
    {
      "inputs": [
        {
          "internalType": "uint256",
          "name": "_protectionPeriod",
          "type": "uint256"
        }
      ],
      "name": "updateProtectionPeriod",
      "outputs": [],
      "stateMutability": "nonpayable",
      "type": "function"
    },
    {
      "inputs": [
        {
          "internalType": "uint256",
          "name": "_tradeFeeRate",
          "type": "uint256"
        }
      ],
      "name": "updateTradeFeeRate",
      "outputs": [],
      "stateMutability": "nonpayable",
      "type": "function"
    },
    {
      "inputs": [
        {
          "internalType": "uint256",
          "name": "_yitian",
          "type": "uint256"
        }
      ],
      "name": "updateYiTian",
      "outputs": [],
      "stateMutability": "nonpayable",
      "type": "function"
    },
    {
      "inputs": [
        {
          "internalType": "address",
          "name": "user",
          "type": "address"
        }
      ],
      "name": "viewDepositSlip",
      "outputs": [
        {
          "components": [
            {
              "internalType": "address",
              "name": "user",
              "type": "address"
            },
            {
              "internalType": "uint256",
              "name": "balance",
              "type": "uint256"
            },
            {
              "internalType": "uint256",
              "name": "startTime",
              "type": "uint256"
            },
            {
              "internalType": "uint256",
              "name": "duration",
              "type": "uint256"
            },
            {
              "internalType": "uint256",
              "name": "apr",
              "type": "uint256"
            },
            {
              "internalType": "uint256",
              "name": "reward",
              "type": "uint256"
            },
            {
              "internalType": "bool",
              "name": "isClaimed",
              "type": "bool"
            }
          ],
          "internalType": "struct FiexdDeposit.DepositSlip",
          "name": "",
          "type": "tuple"
        }
      ],
      "stateMutability": "view",
      "type": "function"
    },
    {
      "inputs": [
        {
          "internalType": "address",
          "name": "user",
          "type": "address"
        }
      ],
      "name": "viewLockReward",
      "outputs": [
        {
          "components": [
            {
              "internalType": "uint256",
              "name": "lockAmount",
              "type": "uint256"
            },
            {
              "internalType": "uint256",
              "name": "unlockAmount",
              "type": "uint256"
            },
            {
              "internalType": "uint256",
              "name": "claimed",
              "type": "uint256"
            }
          ],
          "internalType": "struct FiexdDeposit.LockReward",
          "name": "lockReward",
          "type": "tuple"
        }
      ],
      "stateMutability": "view",
      "type": "function"
    },
    {
      "inputs": [
        {
          "internalType": "address",
          "name": "user",
          "type": "address"
        }
      ],
      "name": "viewUserExtensionCount",
      "outputs": [
        {
          "internalType": "uint8",
          "name": "",
          "type": "uint8"
        }
      ],
      "stateMutability": "view",
      "type": "function"
    },
    {
      "inputs": [],
      "name": "withdraw",
      "outputs": [],
      "stateMutability": "nonpayable",
      "type": "function"
    },
    {
      "inputs": [],
      "name": "yitian",
      "outputs": [
        {
          "internalType": "uint256",
          "name": "",
          "type": "uint256"
        }
      ],
      "stateMutability": "view",
      "type": "function"
    }
  ],
  "bytecode": "0x60a0604052600060055562093a80600655620151806009553480156200002457600080fd5b506040516200253c3803806200253c833981016040819052620000479162000349565b620000523362000226565b60016003556001600160a01b038516620000a85760405162461bcd60e51b81526020600482015260126024820152713a37b5b2b7103830b930b6b99032b93937b960711b60448201526064015b60405180910390fd5b60008411620000fa5760405162461bcd60e51b815260206004820152601960248201527f696e7465726573745261746520706172616d73206572726f720000000000000060448201526064016200009f565b4383116200014b5760405162461bcd60e51b815260206004820152601760248201527f7374617274426c6f636b20706172616d73206572726f7200000000000000000060448201526064016200009f565b8282116200019c5760405162461bcd60e51b815260206004820152601560248201527f656e64426c6f636b20706172616d73206572726f72000000000000000000000060448201526064016200009f565b6000815111620001ef5760405162461bcd60e51b815260206004820152601660248201527f6475726174696f6e7320706172616d73206572726f720000000000000000000060448201526064016200009f565b6001600160601b0319606086901b166080526004849055600783905560088290556200021b8162000276565b505050505062000493565b600080546001600160a01b038381166001600160a01b0319831681178455604051919092169283917f8be0079c531659141344cd1fd0a4f28419497f9722a3daafe3b4186f6b6457e09190a35050565b60005b8151811015620002dc57620002c6828281518110620002a857634e487b7160e01b600052603260045260246000fd5b60200260200101516001620002e060201b620018501790919060201c565b5080620002d38162000455565b91505062000279565b5050565b6000620002ee8383620002f7565b90505b92915050565b60008181526001830160205260408120546200034057508154600181810184556000848152602080822090930184905584548482528286019093526040902091909155620002f1565b506000620002f1565b600080600080600060a0868803121562000361578081fd5b85516001600160a01b038116811462000378578182fd5b602087810151604089015160608a015160808b015194995091975095509350906001600160401b0380821115620003ad578384fd5b818901915089601f830112620003c1578384fd5b815181811115620003d657620003d66200047d565b8060051b604051601f19603f83011681018181108582111715620003fe57620003fe6200047d565b604052828152858101935084860182860187018e10156200041d578788fd5b8795505b838610156200044157805185526001959095019493860193860162000421565b508096505050505050509295509295909350565b60006000198214156200047657634e487b7160e01b81526011600452602481fd5b5060010190565b634e487b7160e01b600052604160045260246000fd5b60805160601c612060620004dc600039600081816103ea015281816106030152818161097e01528181611412015281816114a001528181611565015261195401526120606000f3fe608060405234801561001057600080fd5b50600436106101c45760003560e01c80636b04b9cf116100f9578063bb14462c11610097578063e79a5ebd11610071578063e79a5ebd1461041f578063eed7e43714610432578063f2fde38b14610445578063f6153ccd1461045857600080fd5b8063bb14462c146103d2578063c89039c5146103e5578063e2bbb1581461040c57600080fd5b80638552bf90116100d35780638552bf90146103745780638c2ba3b1146103875780638da5cb5b1461039a5780639bcf4d38146103bf57600080fd5b80636b04b9cf146102f4578063715018a6146102fd57806380dc72aa1461030557600080fd5b8063321cacb5116101665780634e71d92d116101405780634e71d92d1461029b578063574c9b48146102a357806357ded9c9146102b65780635e639b1c146102bf57600080fd5b8063321cacb5146102755780633ccfd60b1461028a57806348cd4cb11461029257600080fd5b80631f57e9a5116101a25780631f57e9a51461022b5780632026ef52146102345780632209e0de146102495780632abef4fe1461026c57600080fd5b8063083c6323146101c9578063128daf79146101e5578063131e5739146101ff575b600080fd5b6101d260085481565b6040519081526020015b60405180910390f35b6101ed600281565b60405160ff90911681526020016101dc565b6101ed61020d366004611d8b565b6001600160a01b03166000908152600d602052604090205460ff1690565b6101d260095481565b61023c610461565b6040516101dc9190611e93565b61025c610257366004611e42565b610472565b60405190151581526020016101dc565b6101d260065481565b610288610283366004611e42565b610485565b005b6102886104df565b6101d260075481565b61028861072a565b6102886102b1366004611e72565b610a57565b6101d260045481565b6102d26102cd366004611d8b565b610ad6565b60408051825181526020808401519082015291810151908201526060016101dc565b6101d260055481565b610288610e47565b610318610313366004611d8b565b610e7d565b6040516101dc919081516001600160a01b031681526020808301519082015260408083015190820152606080830151908201526080808301519082015260a0828101519082015260c09182015115159181019190915260e00190565b610288610382366004611e42565b610f61565b610288610395366004611e42565b610fb2565b6000546001600160a01b03165b6040516001600160a01b0390911681526020016101dc565b6102886103cd366004611e42565b611237565b6102886103e0366004611e42565b611288565b6103a77f000000000000000000000000000000000000000000000000000000000000000081565b61028861041a366004611e72565b6112d9565b61028861042d366004611db2565b6116ac565b610288610440366004611db2565b611733565b610288610453366004611d8b565b6117b5565b6101d2600a5481565b606061046d6001611863565b905090565b600061047f600183611870565b92915050565b6000546001600160a01b031633146104b85760405162461bcd60e51b81526004016104af90611efa565b60405180910390fd5b6005548114156104da5760405162461bcd60e51b81526004016104af90611ed7565b600555565b600260035414156105025760405162461bcd60e51b81526004016104af90611f2f565b60026003818155336000908152600b602052604081209283015460095492840154919290916105319190611fc3565b61053b9190611f66565b905042811061057e5760405162461bcd60e51b815260206004820152600f60248201526e6465706f736974206e6f742064756560881b60448201526064016104af565b60008260010154116105bf5760405162461bcd60e51b815260206004820152600a6024820152696e6f2062616c616e636560b01b60448201526064016104af565b600682015460ff166105f7576105d482611888565b6105e78260050154836003015483611910565b60068201805460ff191660011790555b600182015460058301547f00000000000000000000000000000000000000000000000000000000000000006001600160a01b031663a9059cbb336040516001600160e01b031960e084901b1681526001600160a01b03909116600482015260248101859052604401602060405180830381600087803b15801561067957600080fd5b505af115801561068d573d6000803e3d6000fd5b505050506040513d601f19601f820116820180604052508101906106b19190611e22565b5081600a60008282546106c49190611fe2565b90915550506000600185018190556005850155835460408051848152602081018490526001600160a01b03909216917ff279e6a1f5e320cca91135676d9cb6e44ca8a08c0b88342bcdb1144f6511b56891015b60405180910390a2505060016003555050565b6002600354141561074d5760405162461bcd60e51b81526004016104af90611f2f565b60026003818155336000908152600b6020526040812092830154600954928401549192909161077c9190611fc3565b6107869190611f66565b9050428110156107d9576001820154156107d957600682015460ff166107d9576107af82611888565b6107c28260050154836003015483611910565b60068201805460ff19166001179055600060058301555b336000908152600c6020526040812090805b825481101561092d57600061085f84838154811061081957634e487b7160e01b600052603260045260246000fd5b9060005260206000209060040201604051806080016040529081600082015481526020016001820154815260200160028201548152602001600382015481525050611a39565b90508084838154811061088257634e487b7160e01b600052603260045260246000fd5b906000526020600020906004020160030154101561091a578382815481106108ba57634e487b7160e01b600052603260045260246000fd5b906000526020600020906004020160030154816108d79190611fe2565b6108e19084611f66565b92508084838154811061090457634e487b7160e01b600052603260045260246000fd5b9060005260206000209060040201600301819055505b508061092581611ff9565b9150506107eb565b50600081116109745760405162461bcd60e51b81526020600482015260136024820152726e6f207265776172647320746f20636c61696d60681b60448201526064016104af565b6001600160a01b037f00000000000000000000000000000000000000000000000000000000000000001663a9059cbb336040516001600160e01b031960e084901b1681526001600160a01b03909116600482015260248101849052604401602060405180830381600087803b1580156109ec57600080fd5b505af1158015610a00573d6000803e3d6000fd5b505050506040513d601f19601f82011682018060405250810190610a249190611e22565b5060405181815233907f47cee97cb7acd717b3c0aa1435d004cd5b3c8c57d70dbceb4e4458bbd60e39d490602001610717565b6000546001600160a01b03163314610a815760405162461bcd60e51b81526004016104af90611efa565b4382118015610a8f57508181115b610acb5760405162461bcd60e51b815260206004820152600d60248201526c3230ba329034b99032b93937b960991b60448201526064016104af565b600791909155600855565b610afa60405180606001604052806000815260200160008152602001600081525090565b6001600160a01b0382166000908152600c6020908152604080832080548251818502810185019093528083529192909190849084015b82821015610b8a578382906000526020600020906004020160405180608001604052908160008201548152602001600182015481526020016002820154815260200160038201548152505081526020019060010190610b30565b5050505090506000806000805b8451811015610d0557848181518110610bc057634e487b7160e01b600052603260045260246000fd5b60200260200101516060015184610bd79190611f66565b9350848181518110610bf957634e487b7160e01b600052603260045260246000fd5b602002602001015160600151858281518110610c2557634e487b7160e01b600052603260045260246000fd5b6020026020010151604001511115610cf3576000610c69868381518110610c5c57634e487b7160e01b600052603260045260246000fd5b6020026020010151611a39565b905080868381518110610c8c57634e487b7160e01b600052603260045260246000fd5b602002602001015160400151610ca29190611fe2565b610cac9085611f66565b9350858281518110610cce57634e487b7160e01b600052603260045260246000fd5b60200260200101516060015181610ce59190611fe2565b610cef9084611f66565b9250505b80610cfd81611ff9565b915050610b97565b506001600160a01b038087166000908152600b6020908152604091829020825160e0810184528154909416845260018101549184018290526002810154928401929092526003820154606084015260048201546080840152600582015460a084015260069091015460ff16151560c083015215801590610d8757508060c00151155b15610e2457600081604001516009548360600151610da59190611fc3565b610daf9190611f66565b9050428111610e22576000604051806080016040528083815260200184606001518152602001610dde85611ada565b8152602001600081525090506000610df582611a39565b9050808260400151610e079190611fe2565b610e119087611f66565b9550610e1d8186611f66565b945050505b505b506040805160608101825292835260208301919091528101919091529392505050565b6000546001600160a01b03163314610e715760405162461bcd60e51b81526004016104af90611efa565b610e7b6000611b67565b565b610ec86040518060e0016040528060006001600160a01b0316815260200160008152602001600081526020016000815260200160008152602001600081526020016000151581525090565b6001600160a01b038083166000908152600b6020908152604091829020825160e081018452815490941684526001810154918401919091526002810154918301919091526003810154606083015260048101546080830152600581015460a08301526006015460ff16151560c0820181905261047f57610f4781611ada565b8160a001818151610f589190611f66565b90525092915050565b6000546001600160a01b03163314610f8b5760405162461bcd60e51b81526004016104af90611efa565b600454811415610fad5760405162461bcd60e51b81526004016104af90611ed7565b600455565b60026003541415610fd55760405162461bcd60e51b81526004016104af90611f2f565b6002600355610fe381610472565b6110295760405162461bcd60e51b81526020600482015260176024820152763232b0b23634b732903830b930b69034b99032b93937b960491b60448201526064016104af565b336000908152600d6020526040902054600260ff909116106110865760405162461bcd60e51b81526020600482015260166024820152751bdd5d081bd988195e1d195b9cda5bdb8818dbdd5b9d60521b60448201526064016104af565b336000908152600b60205260408120600281015460095460038301549293926110af9190611fc3565b6110b99190611f66565b90504281106110fc5760405162461bcd60e51b815260206004820152600f60248201526e6465706f736974206e6f742064756560881b60448201526064016104af565b6006546111098242611fe2565b106111415760405162461bcd60e51b8152602060048201526008602482015267746f6f206c61746560c01b60448201526064016104af565b600682015460ff1661116e5761115682611888565b6111698260050154836003015483611910565b61117b565b60068201805460ff191690555b600060058301819055600480549084015560038301849055426002840155338152600d602052604081208054600192906111b990849060ff16611f7e565b825460ff9182166101009390930a9283029190920219909116179055508154600183015460038401546040516001600160a01b03909316927fa450ed142407d4883c8a7354a8bd06c2d055101cfb5dbb323cd89624bcca0d529261122592908252602082015260400190565b60405180910390a25050600160035550565b6000546001600160a01b031633146112615760405162461bcd60e51b81526004016104af90611efa565b6006548114156112835760405162461bcd60e51b81526004016104af90611ed7565b600655565b6000546001600160a01b031633146112b25760405162461bcd60e51b81526004016104af90611efa565b6009548114156112d45760405162461bcd60e51b81526004016104af90611ed7565b600955565b600260035414156112fc5760405162461bcd60e51b81526004016104af90611f2f565b6002600355600754431080159061131557504360085410155b6113545760405162461bcd60e51b815260206004820152601060248201526f3232b837b9b4ba103737ba1037b832b760811b60448201526064016104af565b600082116113935760405162461bcd60e51b815260206004820152600c60248201526b30b6b7bab73a1032b93937b960a11b60448201526064016104af565b61139c81610472565b6113e25760405162461bcd60e51b81526020600482015260176024820152763232b0b23634b732903830b930b69034b99032b93937b960491b60448201526064016104af565b336000908152600b602052604090206113fa81611888565b6040516370a0823160e01b81523060048201526000907f00000000000000000000000000000000000000000000000000000000000000006001600160a01b0316906370a082319060240160206040518083038186803b15801561145c57600080fd5b505afa158015611470573d6000803e3d6000fd5b505050506040513d601f19601f820116820180604052508101906114949190611e5a565b90506001600160a01b037f0000000000000000000000000000000000000000000000000000000000000000166323b872dd336040516001600160e01b031960e084901b1681526001600160a01b03909116600482015230602482015260448101879052606401602060405180830381600087803b15801561151457600080fd5b505af1158015611528573d6000803e3d6000fd5b505050506040513d601f19601f8201168201806040525081019061154c9190611e22565b506040516370a0823160e01b81523060048201526000907f00000000000000000000000000000000000000000000000000000000000000006001600160a01b0316906370a082319060240160206040518083038186803b1580156115af57600080fd5b505afa1580156115c3573d6000803e3d6000fd5b505050506040513d601f19601f820116820180604052508101906115e79190611e5a565b90506115f38282611fe2565b9450848360010160008282546116099190611f66565b909155505082546001600160a01b0319163317835560048054908401556003830184905542600284015560068301805460ff19169055600a8054869190600090611654908490611f66565b9091555050825460408051878152602081018790526001600160a01b03909216917f90890809c654f11d6e72a28fa60149770a0d11ec6c92319d6ceb2bb0a4ea1a15910160405180910390a250506001600355505050565b6000546001600160a01b031633146116d65760405162461bcd60e51b81526004016104af90611efa565b60005b8181101561172e5761171b83838381811061170457634e487b7160e01b600052603260045260246000fd5b905060200201356001611bb790919063ffffffff16565b508061172681611ff9565b9150506116d9565b505050565b6000546001600160a01b0316331461175d5760405162461bcd60e51b81526004016104af90611efa565b60005b8181101561172e576117a283838381811061178b57634e487b7160e01b600052603260045260246000fd5b90506020020135600161185090919063ffffffff16565b50806117ad81611ff9565b915050611760565b6000546001600160a01b031633146117df5760405162461bcd60e51b81526004016104af90611efa565b6001600160a01b0381166118445760405162461bcd60e51b815260206004820152602660248201527f4f776e61626c653a206e6577206f776e657220697320746865207a65726f206160448201526564647265737360d01b60648201526084016104af565b61184d81611b67565b50565b600061185c8383611bc3565b9392505050565b6060600061185c83611c12565b6000818152600183016020526040812054151561185c565b60018101541561184d576040805160e08101825282546001600160a01b03168152600183015460208201526002830154918101919091526003820154606082015260048201546080820152600582015460a0820152600682015460ff16151560c08201526118f590611ada565b8160050160008282546119089190611f66565b909155505050565b612710600554846119219190611fc3565b61192b9190611fa3565b6119359084611fe2565b6040516340c10f1960e01b8152306004820152602481018290529093507f00000000000000000000000000000000000000000000000000000000000000006001600160a01b0316906340c10f1990604401600060405180830381600087803b1580156119a057600080fd5b505af11580156119b4573d6000803e3d6000fd5b505050506000600c60006119c53390565b6001600160a01b0316815260208082019290925260409081016000908120825160808101845295865285840196875291850196875260608501818152825460018181018555938352939091209451600490930290940191825593519381019390935550915160028201559051600390910155565b6000816060015182604001511115611ad2578151600090611a5a9042611fe2565b9050600060095482611a6c9190611fa3565b905060008460200151828660400151611a859190611fc3565b611a90906064611fc3565b611a9a9190611fa3565b6040860151909150611aad606483611fa3565b1015611ac357611abe606482611fa3565b611ac9565b84604001515b95945050505050565b506040015190565b602081015160009015611b6257600061016d61271084608001518560200151611b039190611fc3565b611b0d9190611fa3565b611b179190611fa3565b90506000600954846040015142611b2e9190611fe2565b611b389190611fa3565b905083606001518111611b4b5780611b51565b83606001515b9050611b5d8183611fc3565b925050505b919050565b600080546001600160a01b038381166001600160a01b0319831681178455604051919092169283917f8be0079c531659141344cd1fd0a4f28419497f9722a3daafe3b4186f6b6457e09190a35050565b600061185c8383611c6e565b6000818152600183016020526040812054611c0a5750815460018181018455600084815260208082209093018490558454848252828601909352604090209190915561047f565b50600061047f565b606081600001805480602002602001604051908101604052809291908181526020018280548015611c6257602002820191906000526020600020905b815481526020019060010190808311611c4e575b50505050509050919050565b60008181526001830160205260408120548015611d81576000611c92600183611fe2565b8554909150600090611ca690600190611fe2565b9050818114611d27576000866000018281548110611cd457634e487b7160e01b600052603260045260246000fd5b9060005260206000200154905080876000018481548110611d0557634e487b7160e01b600052603260045260246000fd5b6000918252602080832090910192909255918252600188019052604090208390555b8554869080611d4657634e487b7160e01b600052603160045260246000fd5b60019003818190600052602060002001600090559055856001016000868152602001908152602001600020600090556001935050505061047f565b600091505061047f565b600060208284031215611d9c578081fd5b81356001600160a01b038116811461185c578182fd5b60008060208385031215611dc4578081fd5b823567ffffffffffffffff80821115611ddb578283fd5b818501915085601f830112611dee578283fd5b813581811115611dfc578384fd5b8660208260051b8501011115611e10578384fd5b60209290920196919550909350505050565b600060208284031215611e33578081fd5b8151801515811461185c578182fd5b600060208284031215611e53578081fd5b5035919050565b600060208284031215611e6b578081fd5b5051919050565b60008060408385031215611e84578182fd5b50508035926020909101359150565b6020808252825182820181905260009190848201906040850190845b81811015611ecb57835183529284019291840191600101611eaf565b50909695505050505050565b6020808252600990820152686e6f206368616e676560b81b604082015260600190565b6020808252818101527f4f776e61626c653a2063616c6c6572206973206e6f7420746865206f776e6572604082015260600190565b6020808252601f908201527f5265656e7472616e637947756172643a207265656e7472616e742063616c6c00604082015260600190565b60008219821115611f7957611f79612014565b500190565b600060ff821660ff84168060ff03821115611f9b57611f9b612014565b019392505050565b600082611fbe57634e487b7160e01b81526012600452602481fd5b500490565b6000816000190483118215151615611fdd57611fdd612014565b500290565b600082821015611ff457611ff4612014565b500390565b600060001982141561200d5761200d612014565b5060010190565b634e487b7160e01b600052601160045260246000fdfea2646970667358221220846c56d1c193ab45de1f4cf103134f4be9fec4e21dd18da43b927a1bc632910364736f6c63430008040033",
  "linkReferences": {},
  "deployedLinkReferences": {}
}