{
  "_format": "hh-sol-artifact-1",
  "contractName": "FiexdDeposit",
  "sourceName": "contracts/FiexdDeposit.sol",
  "abi": [
    {
      "inputs": [
        {
          "internalType": "address",
          "name": "_depositToken",
          "type": "address"
        },
        {
          "internalType": "address",
          "name": "_rewardToken",
          "type": "address"
        },
        {
          "internalType": "uint256",
          "name": "_apr",
          "type": "uint256"
        },
        {
          "internalType": "uint256",
          "name": "_startBlock",
          "type": "uint256"
        },
        {
          "internalType": "uint256",
          "name": "_endBlock",
          "type": "uint256"
        },
        {
          "internalType": "uint256[]",
          "name": "_durations",
          "type": "uint256[]"
        }
      ],
      "stateMutability": "nonpayable",
      "type": "constructor"
    },
    {
      "anonymous": false,
      "inputs": [
        {
          "indexed": true,
          "internalType": "address",
          "name": "user",
          "type": "address"
        },
        {
          "indexed": false,
          "internalType": "uint256",
          "name": "amount",
          "type": "uint256"
        },
        {
          "indexed": false,
          "internalType": "uint256",
          "name": "duration",
          "type": "uint256"
        }
      ],
      "name": "Deposit",
      "type": "event"
    },
    {
      "anonymous": false,
      "inputs": [
        {
          "indexed": true,
          "internalType": "address",
          "name": "user",
          "type": "address"
        },
        {
          "indexed": false,
          "internalType": "uint256",
          "name": "amount",
          "type": "uint256"
        },
        {
          "indexed": false,
          "internalType": "uint256",
          "name": "duration",
          "type": "uint256"
        }
      ],
      "name": "Extension",
      "type": "event"
    },
    {
      "anonymous": false,
      "inputs": [
        {
          "indexed": true,
          "internalType": "address",
          "name": "previousOwner",
          "type": "address"
        },
        {
          "indexed": true,
          "internalType": "address",
          "name": "newOwner",
          "type": "address"
        }
      ],
      "name": "OwnershipTransferred",
      "type": "event"
    },
    {
      "anonymous": false,
      "inputs": [
        {
          "indexed": true,
          "internalType": "address",
          "name": "user",
          "type": "address"
        },
        {
          "indexed": false,
          "internalType": "uint256",
          "name": "amount",
          "type": "uint256"
        },
        {
          "indexed": false,
          "internalType": "uint256",
          "name": "reward",
          "type": "uint256"
        }
      ],
      "name": "Withdraw",
      "type": "event"
    },
    {
      "inputs": [
        {
          "internalType": "uint256[]",
          "name": "durations",
          "type": "uint256[]"
        }
      ],
      "name": "addDurations",
      "outputs": [],
      "stateMutability": "nonpayable",
      "type": "function"
    },
    {
      "inputs": [],
      "name": "apr",
      "outputs": [
        {
          "internalType": "uint256",
          "name": "",
          "type": "uint256"
        }
      ],
      "stateMutability": "view",
      "type": "function"
    },
    {
      "inputs": [
        {
          "internalType": "uint256",
          "name": "amount",
          "type": "uint256"
        },
        {
          "internalType": "uint256",
          "name": "duration",
          "type": "uint256"
        }
      ],
      "name": "deposit",
      "outputs": [],
      "stateMutability": "nonpayable",
      "type": "function"
    },
    {
      "inputs": [],
      "name": "depositToken",
      "outputs": [
        {
          "internalType": "address",
          "name": "",
          "type": "address"
        }
      ],
      "stateMutability": "view",
      "type": "function"
    },
    {
      "inputs": [
        {
          "internalType": "uint256",
          "name": "duration",
          "type": "uint256"
        }
      ],
      "name": "durationContains",
      "outputs": [
        {
          "internalType": "bool",
          "name": "",
          "type": "bool"
        }
      ],
      "stateMutability": "view",
      "type": "function"
    },
    {
      "inputs": [],
      "name": "durationValues",
      "outputs": [
        {
          "internalType": "uint256[]",
          "name": "",
          "type": "uint256[]"
        }
      ],
      "stateMutability": "view",
      "type": "function"
    },
    {
      "inputs": [],
      "name": "endBlock",
      "outputs": [
        {
          "internalType": "uint256",
          "name": "",
          "type": "uint256"
        }
      ],
      "stateMutability": "view",
      "type": "function"
    },
    {
      "inputs": [
        {
          "internalType": "uint256",
          "name": "duration",
          "type": "uint256"
        }
      ],
      "name": "extension",
      "outputs": [],
      "stateMutability": "nonpayable",
      "type": "function"
    },
    {
      "inputs": [],
      "name": "owner",
      "outputs": [
        {
          "internalType": "address",
          "name": "",
          "type": "address"
        }
      ],
      "stateMutability": "view",
      "type": "function"
    },
    {
      "inputs": [],
      "name": "protectionPeriod",
      "outputs": [
        {
          "internalType": "uint256",
          "name": "",
          "type": "uint256"
        }
      ],
      "stateMutability": "view",
      "type": "function"
    },
    {
      "inputs": [
        {
          "internalType": "uint256[]",
          "name": "durations",
          "type": "uint256[]"
        }
      ],
      "name": "removeDurations",
      "outputs": [],
      "stateMutability": "nonpayable",
      "type": "function"
    },
    {
      "inputs": [],
      "name": "renounceOwnership",
      "outputs": [],
      "stateMutability": "nonpayable",
      "type": "function"
    },
    {
      "inputs": [],
      "name": "rewardToken",
      "outputs": [
        {
          "internalType": "address",
          "name": "",
          "type": "address"
        }
      ],
      "stateMutability": "view",
      "type": "function"
    },
    {
      "inputs": [],
      "name": "startBlock",
      "outputs": [
        {
          "internalType": "uint256",
          "name": "",
          "type": "uint256"
        }
      ],
      "stateMutability": "view",
      "type": "function"
    },
    {
      "inputs": [],
      "name": "tradeFeeRate",
      "outputs": [
        {
          "internalType": "uint256",
          "name": "",
          "type": "uint256"
        }
      ],
      "stateMutability": "view",
      "type": "function"
    },
    {
      "inputs": [
        {
          "internalType": "address",
          "name": "newOwner",
          "type": "address"
        }
      ],
      "name": "transferOwnership",
      "outputs": [],
      "stateMutability": "nonpayable",
      "type": "function"
    },
    {
      "inputs": [
        {
          "internalType": "uint256",
          "name": "_apr",
          "type": "uint256"
        }
      ],
      "name": "updateApr",
      "outputs": [],
      "stateMutability": "nonpayable",
      "type": "function"
    },
    {
      "inputs": [
        {
          "internalType": "uint256",
          "name": "_startBlock",
          "type": "uint256"
        },
        {
          "internalType": "uint256",
          "name": "_endBlock",
          "type": "uint256"
        }
      ],
      "name": "updateDepositDate",
      "outputs": [],
      "stateMutability": "nonpayable",
      "type": "function"
    },
    {
      "inputs": [
        {
          "internalType": "uint256",
          "name": "_protectionPeriod",
          "type": "uint256"
        }
      ],
      "name": "updateProtectionPeriod",
      "outputs": [],
      "stateMutability": "nonpayable",
      "type": "function"
    },
    {
      "inputs": [
        {
          "internalType": "uint256",
          "name": "_tradeFeeRate",
          "type": "uint256"
        }
      ],
      "name": "updateTradeFeeRate",
      "outputs": [],
      "stateMutability": "nonpayable",
      "type": "function"
    },
    {
      "inputs": [
        {
          "internalType": "address",
          "name": "user",
          "type": "address"
        }
      ],
      "name": "viewDepositSlip",
      "outputs": [
        {
          "components": [
            {
              "internalType": "address",
              "name": "user",
              "type": "address"
            },
            {
              "internalType": "uint256",
              "name": "balance",
              "type": "uint256"
            },
            {
              "internalType": "uint256",
              "name": "startTime",
              "type": "uint256"
            },
            {
              "internalType": "uint256",
              "name": "duration",
              "type": "uint256"
            },
            {
              "internalType": "uint256",
              "name": "apr",
              "type": "uint256"
            },
            {
              "internalType": "uint256",
              "name": "reward",
              "type": "uint256"
            }
          ],
          "internalType": "struct FiexdDeposit.DepositSlip",
          "name": "",
          "type": "tuple"
        }
      ],
      "stateMutability": "view",
      "type": "function"
    },
    {
      "inputs": [],
      "name": "withdraw",
      "outputs": [],
      "stateMutability": "nonpayable",
      "type": "function"
    },
    {
      "inputs": [],
      "name": "yitian",
      "outputs": [
        {
          "internalType": "uint256",
          "name": "",
          "type": "uint256"
        }
      ],
      "stateMutability": "view",
      "type": "function"
    }
  ],
  "bytecode": "0x6080604052600060065562093a8060075562015180600a553480156200002457600080fd5b50604051620018fb380380620018fb833981016040819052620000479162000397565b620000523362000257565b6001600160a01b038616158015906200007357506001600160a01b03851615155b620000ba5760405162461bcd60e51b81526020600482015260126024820152713a37b5b2b7103830b930b6b99032b93937b960711b60448201526064015b60405180910390fd5b600084116200010c5760405162461bcd60e51b815260206004820152601960248201527f696e7465726573745261746520706172616d73206572726f72000000000000006044820152606401620000b1565b4383116200015d5760405162461bcd60e51b815260206004820152601760248201527f7374617274426c6f636b20706172616d73206572726f720000000000000000006044820152606401620000b1565b828211620001ae5760405162461bcd60e51b815260206004820152601560248201527f656e64426c6f636b20706172616d73206572726f7200000000000000000000006044820152606401620000b1565b6000815111620002015760405162461bcd60e51b815260206004820152601660248201527f6475726174696f6e7320706172616d73206572726f72000000000000000000006044820152606401620000b1565b600380546001600160a01b038089166001600160a01b03199283161790925560048054928816929091169190911790556005849055600883905560098290556200024b81620002a7565b505050505050620004e5565b600080546001600160a01b038381166001600160a01b0319831681178455604051919092169283917f8be0079c531659141344cd1fd0a4f28419497f9722a3daafe3b4186f6b6457e09190a35050565b60005b81518110156200030d57620002f7828281518110620002d957634e487b7160e01b600052603260045260246000fd5b602002602001015160016200031160201b62000de61790919060201c565b50806200030481620004a7565b915050620002aa565b5050565b60006200031f838362000328565b90505b92915050565b6000818152600183016020526040812054620003715750815460018181018455600084815260208082209093018490558454848252828601909352604090209190915562000322565b50600062000322565b80516001600160a01b03811681146200039257600080fd5b919050565b60008060008060008060c08789031215620003b0578182fd5b620003bb876200037a565b95506020620003cc8189016200037a565b604089015160608a015160808b015160a08c0151939950919750955093506001600160401b0380821115620003ff578384fd5b818a0191508a601f83011262000413578384fd5b815181811115620004285762000428620004cf565b8060051b604051601f19603f83011681018181108582111715620004505762000450620004cf565b604052828152858101935084860182860187018f10156200046f578788fd5b8795505b838610156200049357805185526001959095019493860193860162000473565b508096505050505050509295509295509295565b6000600019821415620004c857634e487b7160e01b81526011600452602481fd5b5060010190565b634e487b7160e01b600052604160045260246000fd5b61140680620004f56000396000f3fe608060405234801561001057600080fd5b506004361061014d5760003560e01c8063715018a6116100c3578063c89039c51161007c578063c89039c5146102cc578063e2bbb158146102df578063e79a5ebd146102f2578063eed7e43714610305578063f2fde38b14610318578063f7c618c11461032b57600080fd5b8063715018a61461020357806380dc72aa1461020b5780638552bf901461026e5780638c2ba3b1146102815780638da5cb5b146102945780639bcf4d38146102b957600080fd5b8063321cacb511610115578063321cacb5146101b85780633ccfd60b146101cd57806348cd4cb1146101d5578063574c9b48146101de57806357ded9c9146101f15780636b04b9cf146101fa57600080fd5b8063083c6323146101525780631f57e9a51461016e5780632026ef52146101775780632209e0de1461018c5780632abef4fe146101af575b600080fd5b61015b60095481565b6040519081526020015b60405180910390f35b61015b600a5481565b61017f61033e565b604051610165919061127f565b61019f61019a366004611246565b61034f565b6040519015158152602001610165565b61015b60075481565b6101cb6101c6366004611246565b610362565b005b6101cb6103bc565b61015b60085481565b6101cb6101ec36600461125e565b6106ea565b61015b60055481565b61015b60065481565b6101cb610769565b61021e61021936600461113f565b61079f565b604051610165919081516001600160a01b031681526020808301519082015260408083015190820152606080830151908201526080808301519082015260a0918201519181019190915260c00190565b6101cb61027c366004611246565b610846565b6101cb61028f366004611246565b610897565b6000546001600160a01b03165b6040516001600160a01b039091168152602001610165565b6101cb6102c7366004611246565b610a37565b6003546102a1906001600160a01b031681565b6101cb6102ed36600461125e565b610a88565b6101cb610300366004611166565b610c90565b6101cb610313366004611166565b610d18565b6101cb61032636600461113f565b610d4e565b6004546102a1906001600160a01b031681565b606061034a6001610df9565b905090565b600061035c600183610e06565b92915050565b6000546001600160a01b031633146103955760405162461bcd60e51b815260040161038c906112e6565b60405180910390fd5b6006548114156103b75760405162461bcd60e51b815260040161038c906112c3565b600655565b336000908152600b602052604081206002810154600a5460038301549293926103e59190611353565b6103ef919061131b565b90504281106104325760405162461bcd60e51b815260206004820152600f60248201526e6465706f736974206e6f742064756560881b604482015260640161038c565b60008260010154116104735760405162461bcd60e51b815260206004820152600a6024820152696e6f2062616c616e636560b01b604482015260640161038c565b61047c82610e1e565b6001820154600583015480156104bd57600061271060065486600501546104a39190611353565b6104ad9190611333565b90506104b98183611372565b9150505b60006001850181905560058501556004546003546001600160a01b039081169116141561058a5760035484546001600160a01b039182169163a9059cbb9116610506848661131b565b6040516001600160e01b031960e085901b1681526001600160a01b0390921660048301526024820152604401602060405180830381600087803b15801561054c57600080fd5b505af1158015610560573d6000803e3d6000fd5b505050506040513d601f19601f820116820180604052508101906105849190611226565b5061069d565b600354845460405163a9059cbb60e01b81526001600160a01b0391821660048201526024810185905291169063a9059cbb90604401602060405180830381600087803b1580156105d957600080fd5b505af11580156105ed573d6000803e3d6000fd5b505050506040513d601f19601f820116820180604052508101906106119190611226565b5060048054855460405163a9059cbb60e01b81526001600160a01b039182169381019390935260248301849052169063a9059cbb90604401602060405180830381600087803b15801561066357600080fd5b505af1158015610677573d6000803e3d6000fd5b505050506040513d601f19601f8201168201806040525081019061069b9190611226565b505b835460408051848152602081018490526001600160a01b03909216917ff279e6a1f5e320cca91135676d9cb6e44ca8a08c0b88342bcdb1144f6511b568910160405180910390a250505050565b6000546001600160a01b031633146107145760405162461bcd60e51b815260040161038c906112e6565b438211801561072257508181115b61075e5760405162461bcd60e51b815260206004820152600d60248201526c3230ba329034b99032b93937b960991b604482015260640161038c565b600891909155600955565b6000546001600160a01b031633146107935760405162461bcd60e51b815260040161038c906112e6565b61079d6000610ec1565b565b6107e16040518060c0016040528060006001600160a01b0316815260200160008152602001600081526020016000815260200160008152602001600081525090565b506001600160a01b039081166000908152600b6020908152604091829020825160c0810184528154909416845260018101549184019190915260028101549183019190915260038101546060830152600481015460808301526005015460a082015290565b6000546001600160a01b031633146108705760405162461bcd60e51b815260040161038c906112e6565b6005548114156108925760405162461bcd60e51b815260040161038c906112c3565b600555565b6108a08161034f565b6108e65760405162461bcd60e51b81526020600482015260176024820152763232b0b23634b732903830b930b69034b99032b93937b960491b604482015260640161038c565b336000908152600b602052604081206002810154600a54600383015492939261090f9190611353565b610919919061131b565b905042811061095c5760405162461bcd60e51b815260206004820152600f60248201526e6465706f736974206e6f742064756560881b604482015260640161038c565b6007546109698242611372565b106109a15760405162461bcd60e51b8152602060048201526008602482015267746f6f206c61746560c01b604482015260640161038c565b6109aa82610e1e565b81600501548260010160008282546109c2919061131b565b90915550506000600583810191909155546004830155600382018390554260028301558154600183015460408051918252602082018690526001600160a01b03909216917fa450ed142407d4883c8a7354a8bd06c2d055101cfb5dbb323cd89624bcca0d5291015b60405180910390a2505050565b6000546001600160a01b03163314610a615760405162461bcd60e51b815260040161038c906112e6565b600754811415610a835760405162461bcd60e51b815260040161038c906112c3565b600755565b4360085411158015610a9c57504360095410155b610adb5760405162461bcd60e51b815260206004820152601060248201526f3232b837b9b4ba103737ba1037b832b760811b604482015260640161038c565b60008211610b1a5760405162461bcd60e51b815260206004820152600c60248201526b30b6b7bab73a1032b93937b960a11b604482015260640161038c565b610b238161034f565b610b695760405162461bcd60e51b81526020600482015260176024820152763232b0b23634b732903830b930b69034b99032b93937b960491b604482015260640161038c565b336000908152600b60205260409020610b8181610e1e565b6003546001600160a01b03166323b872dd336040516001600160e01b031960e084901b1681526001600160a01b03909116600482015230602482015260448101869052606401602060405180830381600087803b158015610be157600080fd5b505af1158015610bf5573d6000803e3d6000fd5b505050506040513d601f19601f82011682018060405250810190610c199190611226565b5082816001016000828254610c2e919061131b565b909155505080546001600160a01b03191633908117825560055460048301556003820183905542600283015560408051858152602081018590527f90890809c654f11d6e72a28fa60149770a0d11ec6c92319d6ceb2bb0a4ea1a159101610a2a565b6000546001600160a01b03163314610cba5760405162461bcd60e51b815260040161038c906112e6565b60005b8151811015610d1457610d01828281518110610ce957634e487b7160e01b600052603260045260246000fd5b60200260200101516001610f1190919063ffffffff16565b5080610d0c81611389565b915050610cbd565b5050565b6000546001600160a01b03163314610d425760405162461bcd60e51b815260040161038c906112e6565b610d4b81610f1d565b50565b6000546001600160a01b03163314610d785760405162461bcd60e51b815260040161038c906112e6565b6001600160a01b038116610ddd5760405162461bcd60e51b815260206004820152602660248201527f4f776e61626c653a206e6577206f776e657220697320746865207a65726f206160448201526564647265737360d01b606482015260840161038c565b610d4b81610ec1565b6000610df28383610f77565b9392505050565b60606000610df283610fc6565b60008181526001830160205260408120541515610df2565b600181015415610d4b57600061016d61271083600401548460010154610e449190611353565b610e4e9190611333565b610e589190611333565b90506000600a54836002015442610e6f9190611372565b610e799190611333565b905082600301548111610e8c5780610e92565b82600301545b90506000610ea08284611353565b905080846005016000828254610eb6919061131b565b909155505050505050565b600080546001600160a01b038381166001600160a01b0319831681178455604051919092169283917f8be0079c531659141344cd1fd0a4f28419497f9722a3daafe3b4186f6b6457e09190a35050565b6000610df28383611022565b60005b8151811015610d1457610f64828281518110610f4c57634e487b7160e01b600052603260045260246000fd5b60200260200101516001610de690919063ffffffff16565b5080610f6f81611389565b915050610f20565b6000818152600183016020526040812054610fbe5750815460018181018455600084815260208082209093018490558454848252828601909352604090209190915561035c565b50600061035c565b60608160000180548060200260200160405190810160405280929190818152602001828054801561101657602002820191906000526020600020905b815481526020019060010190808311611002575b50505050509050919050565b60008181526001830160205260408120548015611135576000611046600183611372565b855490915060009061105a90600190611372565b90508181146110db57600086600001828154811061108857634e487b7160e01b600052603260045260246000fd5b90600052602060002001549050808760000184815481106110b957634e487b7160e01b600052603260045260246000fd5b6000918252602080832090910192909255918252600188019052604090208390555b85548690806110fa57634e487b7160e01b600052603160045260246000fd5b60019003818190600052602060002001600090559055856001016000868152602001908152602001600020600090556001935050505061035c565b600091505061035c565b600060208284031215611150578081fd5b81356001600160a01b0381168114610df2578182fd5b60006020808385031215611178578182fd5b823567ffffffffffffffff8082111561118f578384fd5b818501915085601f8301126111a2578384fd5b8135818111156111b4576111b46113ba565b8060051b604051601f19603f830116810181811085821117156111d9576111d96113ba565b604052828152858101935084860182860187018a10156111f7578788fd5b8795505b838610156112195780358552600195909501949386019386016111fb565b5098975050505050505050565b600060208284031215611237578081fd5b81518015158114610df2578182fd5b600060208284031215611257578081fd5b5035919050565b60008060408385031215611270578081fd5b50508035926020909101359150565b6020808252825182820181905260009190848201906040850190845b818110156112b75783518352928401929184019160010161129b565b50909695505050505050565b6020808252600990820152686e6f206368616e676560b81b604082015260600190565b6020808252818101527f4f776e61626c653a2063616c6c6572206973206e6f7420746865206f776e6572604082015260600190565b6000821982111561132e5761132e6113a4565b500190565b60008261134e57634e487b7160e01b81526012600452602481fd5b500490565b600081600019048311821515161561136d5761136d6113a4565b500290565b600082821015611384576113846113a4565b500390565b600060001982141561139d5761139d6113a4565b5060010190565b634e487b7160e01b600052601160045260246000fd5b634e487b7160e01b600052604160045260246000fdfea26469706673582212208c4ac17bfb30d689b499be169fef62dccc93daf62874953e36434264846e6d9864736f6c63430008040033",
  "linkReferences": {},
  "deployedLinkReferences": {}
}